{"abi":[{"type":"function","name":"createTask","inputs":[{"name":"_title","type":"string","internalType":"string"}],"outputs":[],"stateMutability":"nonpayable"},{"type":"function","name":"deleteTask","inputs":[{"name":"_id","type":"uint8","internalType":"uint8"}],"outputs":[],"stateMutability":"nonpayable"},{"type":"function","name":"getAllTasks","inputs":[],"outputs":[{"name":"","type":"tuple[]","internalType":"struct Todo.Task[]","components":[{"name":"id","type":"uint8","internalType":"uint8"},{"name":"title","type":"string","internalType":"string"},{"name":"isComplete","type":"bool","internalType":"bool"},{"name":"timeCompleted","type":"uint256","internalType":"uint256"}]}],"stateMutability":"view"},{"type":"function","name":"markComplete","inputs":[{"name":"_id","type":"uint8","internalType":"uint8"}],"outputs":[],"stateMutability":"nonpayable"},{"type":"function","name":"tasks","inputs":[{"name":"","type":"uint256","internalType":"uint256"}],"outputs":[{"name":"id","type":"uint8","internalType":"uint8"},{"name":"title","type":"string","internalType":"string"},{"name":"isComplete","type":"bool","internalType":"bool"},{"name":"timeCompleted","type":"uint256","internalType":"uint256"}],"stateMutability":"view"},{"type":"function","name":"updateTitle","inputs":[{"name":"_id","type":"uint256","internalType":"uint256"},{"name":"_title","type":"string","internalType":"string"}],"outputs":[],"stateMutability":"nonpayable"}],"bytecode":{"object":"0x6080604052348015600e575f5ffd5b506111fd8061001c5f395ff3fe608060405234801561000f575f5ffd5b5060043610610060575f3560e01c8063111002aa146100645780635786ead214610080578063779900b41461009c57806383de1242146100ba5780638d977672146100d6578063c3d081f514610109575b5f5ffd5b61007e600480360381019061007991906108e8565b610125565b005b61009a60048036038101906100959190610962565b61021a565b005b6100a46102e4565b6040516100b19190610b7b565b60405180910390f35b6100d460048036038101906100cf9190610bc5565b61040e565b005b6100f060048036038101906100eb9190610bf0565b6104db565b6040516101009493929190610c90565b60405180910390f35b610123600480360381019061011e9190610bc5565b6105b3565b005b6001805f9054906101000a900460ff1661013f9190610d07565b60015f6101000a81548160ff021916908360ff1602179055505f604051806080016040528060015f9054906101000a900460ff1660ff1681526020018381526020015f151581526020015f81525090505f81908060018154018082558091505060019003905f5260205f2090600402015f909190919091505f820151815f015f6101000a81548160ff021916908360ff16021790555060208201518160010190816101ea9190610f49565b506040820151816002015f6101000a81548160ff0219169083151502179055506060820151816003015550505050565b5f5f90505b5f805490508160ff1610156102df57825f8260ff168154811061024557610244611018565b5b905f5260205f2090600402015f015f9054906101000a900460ff1660ff16036102cc575f8160ff168154811061027e5761027d611018565b5b905f5260205f2090600402016001015f6102989190610744565b815f8260ff16815481106102af576102ae611018565b5b905f5260205f20906004020160010190816102ca9190610f49565b505b80806102d790611045565b91505061021f565b505050565b60605f805480602002602001604051908101604052809291908181526020015f905b82821015610405578382905f5260205f2090600402016040518060800160405290815f82015f9054906101000a900460ff1660ff1660ff16815260200160018201805461035290610d68565b80601f016020809104026020016040519081016040528092919081815260200182805461037e90610d68565b80156103c95780601f106103a0576101008083540402835291602001916103c9565b820191905f5260205f20905b8154815290600101906020018083116103ac57829003601f168201915b50505050508152602001600282015f9054906101000a900460ff1615151515815260200160038201548152505081526020019060010190610306565b50505050905090565b5f5b5f805490508160ff1610156104d7578160ff165f8260ff168154811061043957610438611018565b5b905f5260205f2090600402015f015f9054906101000a900460ff1660ff16036104c45760015f8260ff168154811061047457610473611018565b5b905f5260205f2090600402016002015f6101000a81548160ff021916908315150217905550425f8260ff16815481106104b0576104af611018565b5b905f5260205f209060040201600301819055505b80806104cf90611045565b915050610410565b5050565b5f81815481106104e9575f80fd5b905f5260205f2090600402015f91509050805f015f9054906101000a900460ff169080600101805461051a90610d68565b80601f016020809104026020016040519081016040528092919081815260200182805461054690610d68565b80156105915780601f1061056857610100808354040283529160200191610591565b820191905f5260205f20905b81548152906001019060200180831161057457829003601f168201915b505050505090806002015f9054906101000a900460ff16908060030154905084565b5f5b5f805490508160ff161015610740578160ff165f8260ff16815481106105de576105dd611018565b5b905f5260205f2090600402015f015f9054906101000a900460ff1660ff160361072d575f60015f80549050610613919061106d565b8154811061062457610623611018565b5b905f5260205f2090600402015f8260ff168154811061064657610645611018565b5b905f5260205f2090600402015f82015f9054906101000a900460ff16815f015f6101000a81548160ff021916908360ff1602179055506001820181600101908161069091906110b5565b50600282015f9054906101000a900460ff16816002015f6101000a81548160ff021916908315150217905550600382015481600301559050505f8054806106da576106d961119a565b5b600190038181905f5260205f2090600402015f5f82015f6101000a81549060ff0219169055600182015f61070e9190610744565b600282015f6101000a81549060ff0219169055600382015f9055505090555b808061073890611045565b9150506105b5565b5050565b50805461075090610d68565b5f825580601f10610761575061077b565b601f0160209004905f5260205f209061077a919061077e565b5b50565b5f5b80821115610796578281015f9055600101610780565b505090565b5f604051905090565b5f5ffd5b5f5ffd5b5f5ffd5b5f5ffd5b5f601f19601f8301169050919050565b7f4e487b71000000000000000000000000000000000000000000000000000000005f52604160045260245ffd5b6107fa826107b4565b810181811067ffffffffffffffff82111715610819576108186107c4565b5b80604052505050565b5f61082b61079b565b905061083782826107f1565b919050565b5f67ffffffffffffffff821115610856576108556107c4565b5b61085f826107b4565b9050602081019050919050565b828183375f83830152505050565b5f61088c6108878461083c565b610822565b9050828152602081018484840111156108a8576108a76107b0565b5b6108b384828561086c565b509392505050565b5f82601f8301126108cf576108ce6107ac565b5b81356108df84826020860161087a565b91505092915050565b5f602082840312156108fd576108fc6107a4565b5b5f82013567ffffffffffffffff81111561091a576109196107a8565b5b610926848285016108bb565b91505092915050565b5f819050919050565b6109418161092f565b811461094b575f5ffd5b50565b5f8135905061095c81610938565b92915050565b5f5f60408385031215610978576109776107a4565b5b5f6109858582860161094e565b925050602083013567ffffffffffffffff8111156109a6576109a56107a8565b5b6109b2858286016108bb565b9150509250929050565b5f81519050919050565b5f82825260208201905092915050565b5f819050602082019050919050565b5f60ff82169050919050565b6109fa816109e5565b82525050565b5f81519050919050565b5f82825260208201905092915050565b8281835e5f83830152505050565b5f610a3282610a00565b610a3c8185610a0a565b9350610a4c818560208601610a1a565b610a55816107b4565b840191505092915050565b5f8115159050919050565b610a7481610a60565b82525050565b610a838161092f565b82525050565b5f608083015f830151610a9e5f8601826109f1565b5060208301518482036020860152610ab68282610a28565b9150506040830151610acb6040860182610a6b565b506060830151610ade6060860182610a7a565b508091505092915050565b5f610af48383610a89565b905092915050565b5f602082019050919050565b5f610b12826109bc565b610b1c81856109c6565b935083602082028501610b2e856109d6565b805f5b85811015610b695784840389528151610b4a8582610ae9565b9450610b5583610afc565b925060208a01995050600181019050610b31565b50829750879550505050505092915050565b5f6020820190508181035f830152610b938184610b08565b905092915050565b610ba4816109e5565b8114610bae575f5ffd5b50565b5f81359050610bbf81610b9b565b92915050565b5f60208284031215610bda57610bd96107a4565b5b5f610be784828501610bb1565b91505092915050565b5f60208284031215610c0557610c046107a4565b5b5f610c128482850161094e565b91505092915050565b610c24816109e5565b82525050565b5f82825260208201905092915050565b5f610c4482610a00565b610c4e8185610c2a565b9350610c5e818560208601610a1a565b610c67816107b4565b840191505092915050565b610c7b81610a60565b82525050565b610c8a8161092f565b82525050565b5f608082019050610ca35f830187610c1b565b8181036020830152610cb58186610c3a565b9050610cc46040830185610c72565b610cd16060830184610c81565b95945050505050565b7f4e487b71000000000000000000000000000000000000000000000000000000005f52601160045260245ffd5b5f610d11826109e5565b9150610d1c836109e5565b9250828201905060ff811115610d3557610d34610cda565b5b92915050565b7f4e487b71000000000000000000000000000000000000000000000000000000005f52602260045260245ffd5b5f6002820490506001821680610d7f57607f821691505b602082108103610d9257610d91610d3b565b5b50919050565b5f819050815f5260205f209050919050565b5f6020601f8301049050919050565b5f82821b905092915050565b5f60088302610df47fffffffffffffffffffffffffffffffffffffffffffffffffffffffffffffffff82610db9565b610dfe8683610db9565b95508019841693508086168417925050509392505050565b5f819050919050565b5f610e39610e34610e2f8461092f565b610e16565b61092f565b9050919050565b5f819050919050565b610e5283610e1f565b610e66610e5e82610e40565b848454610dc5565b825550505050565b5f5f905090565b610e7d610e6e565b610e88818484610e49565b505050565b5f5b82811015610eae57610ea35f828401610e75565b600181019050610e8f565b505050565b601f821115610f015782821115610f0057610ecd81610d98565b610ed683610daa565b610edf85610daa565b6020861015610eec575f90505b808301610efb82840382610e8d565b505050505b5b505050565b5f82821c905092915050565b5f610f215f1984600802610f06565b1980831691505092915050565b5f610f398383610f12565b9150826002028217905092915050565b610f5282610a00565b67ffffffffffffffff811115610f6b57610f6a6107c4565b5b610f758254610d68565b610f80828285610eb3565b5f60209050601f831160018114610fb1575f8415610f9f578287015190505b610fa98582610f2e565b865550611010565b601f198416610fbf86610d98565b5f5b82811015610fe657848901518255600182019150602085019450602081019050610fc1565b868310156110035784890151610fff601f891682610f12565b8355505b6001600288020188555050505b505050505050565b7f4e487b71000000000000000000000000000000000000000000000000000000005f52603260045260245ffd5b5f61104f826109e5565b915060ff820361106257611061610cda565b5b600182019050919050565b5f6110778261092f565b91506110828361092f565b925082820390508181111561109a57611099610cda565b5b92915050565b5f815490506110ae81610d68565b9050919050565b8181036110c3575050611198565b6110cc826110a0565b67ffffffffffffffff8111156110e5576110e46107c4565b5b6110ef8254610d68565b6110fa828285610eb3565b5f601f831160018114611127575f8415611115578287015490505b61111f8582610f2e565b865550611191565b601f19841661113587610d98565b965061114086610d98565b5f5b8281101561116757848901548255600182019150600185019450602081019050611142565b868310156111845784890154611180601f891682610f12565b8355505b6001600288020188555050505b5050505050505b565b7f4e487b71000000000000000000000000000000000000000000000000000000005f52603160045260245ffdfea264697066735822122078b6e59eb56831b9a990cc341ba9f089d884679d40778983d6ddd6154f4ebd6764736f6c63430008210033","linkReferences":{}},"methodIdentifiers":{"createTask(string)":"111002aa","deleteTask(uint8)":"c3d081f5","getAllTasks()":"779900b4","markComplete(uint8)":"83de1242","tasks(uint256)":"8d977672","updateTitle(uint256,string)":"5786ead2"},"id":21}