{"abi":[{"type":"receive","stateMutability":"payable"},{"type":"function","name":"depositEther","inputs":[],"outputs":[],"stateMutability":"payable"},{"type":"function","name":"depositToken","inputs":[{"name":"tokenAddress","type":"address","internalType":"address"},{"name":"amount","type":"uint256","internalType":"uint256"}],"outputs":[],"stateMutability":"nonpayable"},{"type":"function","name":"etherBalances","inputs":[{"name":"","type":"address","internalType":"address"}],"outputs":[{"name":"","type":"uint256","internalType":"uint256"}],"stateMutability":"view"},{"type":"function","name":"getContractEtherBalance","inputs":[],"outputs":[{"name":"","type":"uint256","internalType":"uint256"}],"stateMutability":"view"},{"type":"function","name":"getContractTokenBalance","inputs":[{"name":"tokenAddress","type":"address","internalType":"address"}],"outputs":[{"name":"","type":"uint256","internalType":"uint256"}],"stateMutability":"view"},{"type":"function","name":"getEtherBalance","inputs":[{"name":"user","type":"address","internalType":"address"}],"outputs":[{"name":"","type":"uint256","internalType":"uint256"}],"stateMutability":"view"},{"type":"function","name":"getTokenBalance","inputs":[{"name":"user","type":"address","internalType":"address"},{"name":"tokenAddress","type":"address","internalType":"address"}],"outputs":[{"name":"","type":"uint256","internalType":"uint256"}],"stateMutability":"view"},{"type":"function","name":"tokenBalances","inputs":[{"name":"","type":"address","internalType":"address"},{"name":"","type":"address","internalType":"address"}],"outputs":[{"name":"","type":"uint256","internalType":"uint256"}],"stateMutability":"view"},{"type":"function","name":"withdrawEther","inputs":[{"name":"amount","type":"uint256","internalType":"uint256"}],"outputs":[],"stateMutability":"nonpayable"},{"type":"function","name":"withdrawToken","inputs":[{"name":"tokenAddress","type":"address","internalType":"address"},{"name":"amount","type":"uint256","internalType":"uint256"}],"outputs":[],"stateMutability":"nonpayable"},{"type":"event","name":"EtherDeposited","inputs":[{"name":"user","type":"address","indexed":true,"internalType":"address"},{"name":"amount","type":"uint256","indexed":false,"internalType":"uint256"}],"anonymous":false},{"type":"event","name":"EtherWithdrawn","inputs":[{"name":"user","type":"address","indexed":true,"internalType":"address"},{"name":"amount","type":"uint256","indexed":false,"internalType":"uint256"}],"anonymous":false},{"type":"event","name":"TokenDeposited","inputs":[{"name":"user","type":"address","indexed":true,"internalType":"address"},{"name":"token","type":"address","indexed":true,"internalType":"address"},{"name":"amount","type":"uint256","indexed":false,"internalType":"uint256"}],"anonymous":false},{"type":"event","name":"TokenWithdrawn","inputs":[{"name":"user","type":"address","indexed":true,"internalType":"address"},{"name":"token","type":"address","indexed":true,"internalType":"address"},{"name":"amount","type":"uint256","indexed":false,"internalType":"uint256"}],"anonymous":false}],"bytecode":{"object":"0x6080604052348015600e575f5ffd5b5061149c8061001c5f395ff3fe608060405260043610610094575f3560e01c80639653f8a1116100585780639653f8a11461023157806398ea5fca1461026d5780639e281a9814610277578063c489744b1461029f578063dc45d08e146102db5761013b565b806314205e281461013f57806330e76dae1461017b578063338b5dea146101a55780633bed33ce146101cd5780634dbf6c5a146101f55761013b565b3661013b57345f5f3373ffffffffffffffffffffffffffffffffffffffff1673ffffffffffffffffffffffffffffffffffffffff1681526020019081526020015f205f8282546100e49190610d58565b925050819055503373ffffffffffffffffffffffffffffffffffffffff167f939e51ac2fd009b158d6344f7e68a83d8d18d9b0cc88cf514aac6aaa9cad2a18346040516101319190610d9a565b60405180910390a2005b5f5ffd5b34801561014a575f5ffd5b5061016560048036038101906101609190610e11565b610317565b6040516101729190610d9a565b60405180910390f35b348015610186575f5ffd5b5061018f61039c565b60405161019c9190610d9a565b60405180910390f35b3480156101b0575f5ffd5b506101cb60048036038101906101c69190610e66565b6103a3565b005b3480156101d8575f5ffd5b506101f360048036038101906101ee9190610ea4565b610610565b005b348015610200575f5ffd5b5061021b60048036038101906102169190610ecf565b61081d565b6040516102289190610d9a565b60405180910390f35b34801561023c575f5ffd5b5061025760048036038101906102529190610e11565b61083d565b6040516102649190610d9a565b60405180910390f35b610275610851565b005b348015610282575f5ffd5b5061029d60048036038101906102989190610e66565b610935565b005b3480156102aa575f5ffd5b506102c560048036038101906102c09190610ecf565b610c5b565b6040516102d29190610d9a565b60405180910390f35b3480156102e6575f5ffd5b5061030160048036038101906102fc9190610e11565b610cdd565b60405161030e9190610d9a565b60405180910390f35b5f5f8290508073ffffffffffffffffffffffffffffffffffffffff166370a08231306040518263ffffffff1660e01b81526004016103559190610f1c565b602060405180830381865afa158015610370573d5f5f3e3d5ffd5b505050506040513d601f19601f820116820180604052508101906103949190610f49565b915050919050565b5f47905090565b5f73ffffffffffffffffffffffffffffffffffffffff168273ffffffffffffffffffffffffffffffffffffffff1603610411576040517f08c379a000000000000000000000000000000000000000000000000000000000815260040161040890610fce565b60405180910390fd5b5f8111610453576040517f08c379a000000000000000000000000000000000000000000000000000000000815260040161044a9061105c565b60405180910390fd5b5f8290505f8173ffffffffffffffffffffffffffffffffffffffff166323b872dd3330866040518463ffffffff1660e01b81526004016104959392919061107a565b6020604051808303815f875af11580156104b1573d5f5f3e3d5ffd5b505050506040513d601f19601f820116820180604052508101906104d591906110e4565b905080610517576040517f08c379a000000000000000000000000000000000000000000000000000000000815260040161050e90611159565b60405180910390fd5b8260015f3373ffffffffffffffffffffffffffffffffffffffff1673ffffffffffffffffffffffffffffffffffffffff1681526020019081526020015f205f8673ffffffffffffffffffffffffffffffffffffffff1673ffffffffffffffffffffffffffffffffffffffff1681526020019081526020015f205f82825461059e9190610d58565b925050819055508373ffffffffffffffffffffffffffffffffffffffff163373ffffffffffffffffffffffffffffffffffffffff167ff1444b5cad7ce70cb018d1b8edc8618fe303f3c7f034d8d572a6e27facbf2bef856040516106029190610d9a565b60405180910390a350505050565b5f8111610652576040517f08c379a0000000000000000000000000000000000000000000000000000000008152600401610649906111e7565b60405180910390fd5b805f5f3373ffffffffffffffffffffffffffffffffffffffff1673ffffffffffffffffffffffffffffffffffffffff1681526020019081526020015f205410156106d1576040517f08c379a00000000000000000000000000000000000000000000000000000000081526004016106c89061124f565b60405180910390fd5b805f5f3373ffffffffffffffffffffffffffffffffffffffff1673ffffffffffffffffffffffffffffffffffffffff1681526020019081526020015f205f82825461071c919061126d565b925050819055505f3373ffffffffffffffffffffffffffffffffffffffff1682604051610748906112cd565b5f6040518083038185875af1925050503d805f8114610782576040519150601f19603f3d011682016040523d82523d5f602084013e610787565b606091505b50509050806107cb576040517f08c379a00000000000000000000000000000000000000000000000000000000081526004016107c29061132b565b60405180910390fd5b3373ffffffffffffffffffffffffffffffffffffffff167f06097061aeda806b5e9cb4133d9899f332ff0913956567fc0f7ea15e3d19947c836040516108119190610d9a565b60405180910390a25050565b6001602052815f5260405f20602052805f5260405f205f91509150505481565b5f602052805f5260405f205f915090505481565b5f3411610893576040517f08c379a000000000000000000000000000000000000000000000000000000000815260040161088a906113b9565b60405180910390fd5b345f5f3373ffffffffffffffffffffffffffffffffffffffff1673ffffffffffffffffffffffffffffffffffffffff1681526020019081526020015f205f8282546108de9190610d58565b925050819055503373ffffffffffffffffffffffffffffffffffffffff167f939e51ac2fd009b158d6344f7e68a83d8d18d9b0cc88cf514aac6aaa9cad2a183460405161092b9190610d9a565b60405180910390a2565b5f73ffffffffffffffffffffffffffffffffffffffff168273ffffffffffffffffffffffffffffffffffffffff16036109a3576040517f08c379a000000000000000000000000000000000000000000000000000000000815260040161099a90610fce565b60405180910390fd5b5f81116109e5576040517f08c379a00000000000000000000000000000000000000000000000000000000081526004016109dc906111e7565b60405180910390fd5b8060015f3373ffffffffffffffffffffffffffffffffffffffff1673ffffffffffffffffffffffffffffffffffffffff1681526020019081526020015f205f8473ffffffffffffffffffffffffffffffffffffffff1673ffffffffffffffffffffffffffffffffffffffff1681526020019081526020015f20541015610aa0576040517f08c379a0000000000000000000000000000000000000000000000000000000008152600401610a9790611421565b60405180910390fd5b5f8290508160015f3373ffffffffffffffffffffffffffffffffffffffff1673ffffffffffffffffffffffffffffffffffffffff1681526020019081526020015f205f8573ffffffffffffffffffffffffffffffffffffffff1673ffffffffffffffffffffffffffffffffffffffff1681526020019081526020015f205f828254610b2b919061126d565b925050819055505f8173ffffffffffffffffffffffffffffffffffffffff1663a9059cbb33856040518363ffffffff1660e01b8152600401610b6e92919061143f565b6020604051808303815f875af1158015610b8a573d5f5f3e3d5ffd5b505050506040513d601f19601f82011682018060405250810190610bae91906110e4565b905080610bf0576040517f08c379a0000000000000000000000000000000000000000000000000000000008152600401610be790611159565b60405180910390fd5b8373ffffffffffffffffffffffffffffffffffffffff163373ffffffffffffffffffffffffffffffffffffffff167f8210728e7c071f615b840ee026032693858fbcd5e5359e67e438c890f59e562085604051610c4d9190610d9a565b60405180910390a350505050565b5f60015f8473ffffffffffffffffffffffffffffffffffffffff1673ffffffffffffffffffffffffffffffffffffffff1681526020019081526020015f205f8373ffffffffffffffffffffffffffffffffffffffff1673ffffffffffffffffffffffffffffffffffffffff1681526020019081526020015f2054905092915050565b5f5f5f8373ffffffffffffffffffffffffffffffffffffffff1673ffffffffffffffffffffffffffffffffffffffff1681526020019081526020015f20549050919050565b5f819050919050565b7f4e487b71000000000000000000000000000000000000000000000000000000005f52601160045260245ffd5b5f610d6282610d22565b9150610d6d83610d22565b9250828201905080821115610d8557610d84610d2b565b5b92915050565b610d9481610d22565b82525050565b5f602082019050610dad5f830184610d8b565b92915050565b5f5ffd5b5f73ffffffffffffffffffffffffffffffffffffffff82169050919050565b5f610de082610db7565b9050919050565b610df081610dd6565b8114610dfa575f5ffd5b50565b5f81359050610e0b81610de7565b92915050565b5f60208284031215610e2657610e25610db3565b5b5f610e3384828501610dfd565b91505092915050565b610e4581610d22565b8114610e4f575f5ffd5b50565b5f81359050610e6081610e3c565b92915050565b5f5f60408385031215610e7c57610e7b610db3565b5b5f610e8985828601610dfd565b9250506020610e9a85828601610e52565b9150509250929050565b5f60208284031215610eb957610eb8610db3565b5b5f610ec684828501610e52565b91505092915050565b5f5f60408385031215610ee557610ee4610db3565b5b5f610ef285828601610dfd565b9250506020610f0385828601610dfd565b9150509250929050565b610f1681610dd6565b82525050565b5f602082019050610f2f5f830184610f0d565b92915050565b5f81519050610f4381610e3c565b92915050565b5f60208284031215610f5e57610f5d610db3565b5b5f610f6b84828501610f35565b91505092915050565b5f82825260208201905092915050565b7f536176653a20496e76616c696420746f6b656e206164647265737300000000005f82015250565b5f610fb8601b83610f74565b9150610fc382610f84565b602082019050919050565b5f6020820190508181035f830152610fe581610fac565b9050919050565b7f536176653a204465706f73697420616d6f756e74206d757374206265206772655f8201527f61746572207468616e207a65726f000000000000000000000000000000000000602082015250565b5f611046602e83610f74565b915061105182610fec565b604082019050919050565b5f6020820190508181035f8301526110738161103a565b9050919050565b5f60608201905061108d5f830186610f0d565b61109a6020830185610f0d565b6110a76040830184610d8b565b949350505050565b5f8115159050919050565b6110c3816110af565b81146110cd575f5ffd5b50565b5f815190506110de816110ba565b92915050565b5f602082840312156110f9576110f8610db3565b5b5f611106848285016110d0565b91505092915050565b7f536176653a20546f6b656e207472616e73666572206661696c656400000000005f82015250565b5f611143601b83610f74565b915061114e8261110f565b602082019050919050565b5f6020820190508181035f83015261117081611137565b9050919050565b7f536176653a205769746864726177616c20616d6f756e74206d757374206265205f8201527f67726561746572207468616e207a65726f000000000000000000000000000000602082015250565b5f6111d1603183610f74565b91506111dc82611177565b604082019050919050565b5f6020820190508181035f8301526111fe816111c5565b9050919050565b7f536176653a20496e73756666696369656e742045746865722062616c616e63655f82015250565b5f611239602083610f74565b915061124482611205565b602082019050919050565b5f6020820190508181035f8301526112668161122d565b9050919050565b5f61127782610d22565b915061128283610d22565b925082820390508181111561129a57611299610d2b565b5b92915050565b5f81905092915050565b50565b5f6112b85f836112a0565b91506112c3826112aa565b5f82019050919050565b5f6112d7826112ad565b9150819050919050565b7f536176653a204574686572207472616e73666572206661696c656400000000005f82015250565b5f611315601b83610f74565b9150611320826112e1565b602082019050919050565b5f6020820190508181035f83015261134281611309565b9050919050565b7f536176653a204d757374206465706f736974206d6f7265207468616e207a65725f8201527f6f00000000000000000000000000000000000000000000000000000000000000602082015250565b5f6113a3602183610f74565b91506113ae82611349565b604082019050919050565b5f6020820190508181035f8301526113d081611397565b9050919050565b7f536176653a20496e73756666696369656e7420746f6b656e2062616c616e63655f82015250565b5f61140b602083610f74565b9150611416826113d7565b602082019050919050565b5f6020820190508181035f830152611438816113ff565b9050919050565b5f6040820190506114525f830185610f0d565b61145f6020830184610d8b565b939250505056fea2646970667358221220da97808d3c6031eaf9edab2f21217ce72239a1eabf4c7f1c5bc6e9628555bd4564736f6c63430008210033","linkReferences":{}},"methodIdentifiers":{"depositEther()":"98ea5fca","depositToken(address,uint256)":"338b5dea","etherBalances(address)":"9653f8a1","getContractEtherBalance()":"30e76dae","getContractTokenBalance(address)":"14205e28","getEtherBalance(address)":"dc45d08e","getTokenBalance(address,address)":"c489744b","tokenBalances(address,address)":"4dbf6c5a","withdrawEther(uint256)":"3bed33ce","withdrawToken(address,uint256)":"9e281a98"},"id":18}