{"abi":[{"type":"function","name":"createWallet","inputs":[{"name":"_owners","type":"address[]","internalType":"address[]"},{"name":"_threshold","type":"uint256","internalType":"uint256"}],"outputs":[{"name":"","type":"address","internalType":"address"}],"stateMutability":"nonpayable"},{"type":"function","name":"deployedWallets","inputs":[{"name":"","type":"uint256","internalType":"uint256"}],"outputs":[{"name":"","type":"address","internalType":"contract MultisigWallet"}],"stateMutability":"view"},{"type":"function","name":"getWalletsCount","inputs":[],"outputs":[{"name":"","type":"uint256","internalType":"uint256"}],"stateMutability":"view"},{"type":"event","name":"WalletCreated","inputs":[{"name":"walletAddress","type":"address","indexed":true,"internalType":"address"},{"name":"owners","type":"address[]","indexed":false,"internalType":"address[]"},{"name":"threshold","type":"uint256","indexed":false,"internalType":"uint256"},{"name":"creator","type":"address","indexed":true,"internalType":"address"}],"anonymous":false}],"bytecode":{"object":"0x6080604052348015600e575f5ffd5b506135a88061001c5f395ff3fe608060405234801561000f575f5ffd5b506004361061003f575f3560e01c80633800a55d14610043578063778b5aee146100735780638455c42314610091575b5f5ffd5b61005d60048036038101906100589190610408565b6100c1565b60405161006a9190610471565b60405180910390f35b61007b6101c8565b6040516100889190610499565b60405180910390f35b6100ab60048036038101906100a691906104b2565b6101d3565b6040516100b89190610538565b60405180910390f35b5f5f83836040516100d19061020d565b6100dc929190610608565b604051809103905ff0801580156100f5573d5f5f3e3d5ffd5b5090505f81908060018154018082558091505060019003905f5260205f20015f9091909190916101000a81548173ffffffffffffffffffffffffffffffffffffffff021916908373ffffffffffffffffffffffffffffffffffffffff1602179055503373ffffffffffffffffffffffffffffffffffffffff168173ffffffffffffffffffffffffffffffffffffffff167f58086600fd7b9e109f065642e303ee279195963a54415219f07dd1467572d54786866040516101b6929190610608565b60405180910390a38091505092915050565b5f5f80549050905090565b5f81815481106101e1575f80fd5b905f5260205f20015f915054906101000a900473ffffffffffffffffffffffffffffffffffffffff1681565b612f3c8061063783390190565b5f604051905090565b5f5ffd5b5f5ffd5b5f5ffd5b5f601f19601f8301169050919050565b7f4e487b71000000000000000000000000000000000000000000000000000000005f52604160045260245ffd5b6102758261022f565b810181811067ffffffffffffffff821117156102945761029361023f565b5b80604052505050565b5f6102a661021a565b90506102b2828261026c565b919050565b5f67ffffffffffffffff8211156102d1576102d061023f565b5b602082029050602081019050919050565b5f5ffd5b5f73ffffffffffffffffffffffffffffffffffffffff82169050919050565b5f61030f826102e6565b9050919050565b61031f81610305565b8114610329575f5ffd5b50565b5f8135905061033a81610316565b92915050565b5f61035261034d846102b7565b61029d565b90508083825260208201905060208402830185811115610375576103746102e2565b5b835b8181101561039e578061038a888261032c565b845260208401935050602081019050610377565b5050509392505050565b5f82601f8301126103bc576103bb61022b565b5b81356103cc848260208601610340565b91505092915050565b5f819050919050565b6103e7816103d5565b81146103f1575f5ffd5b50565b5f81359050610402816103de565b92915050565b5f5f6040838503121561041e5761041d610223565b5b5f83013567ffffffffffffffff81111561043b5761043a610227565b5b610447858286016103a8565b9250506020610458858286016103f4565b9150509250929050565b61046b81610305565b82525050565b5f6020820190506104845f830184610462565b92915050565b610493816103d5565b82525050565b5f6020820190506104ac5f83018461048a565b92915050565b5f602082840312156104c7576104c6610223565b5b5f6104d4848285016103f4565b91505092915050565b5f819050919050565b5f6105006104fb6104f6846102e6565b6104dd565b6102e6565b9050919050565b5f610511826104e6565b9050919050565b5f61052282610507565b9050919050565b61053281610518565b82525050565b5f60208201905061054b5f830184610529565b92915050565b5f81519050919050565b5f82825260208201905092915050565b5f819050602082019050919050565b61058381610305565b82525050565b5f610594838361057a565b60208301905092915050565b5f602082019050919050565b5f6105b682610551565b6105c0818561055b565b93506105cb8361056b565b805f5b838110156105fb5781516105e28882610589565b97506105ed836105a0565b9250506001810190506105ce565b5085935050505092915050565b5f6040820190508181035f83015261062081856105ac565b905061062f602083018461048a565b939250505056fe608060405234801561000f575f5ffd5b50604051612f3c380380612f3c833981810160405281019061003191906104a5565b5f825111610074576040517f08c379a000000000000000000000000000000000000000000000000000000000815260040161006b90610559565b60405180910390fd5b5f81118015610084575081518111155b6100c3576040517f08c379a00000000000000000000000000000000000000000000000000000000081526004016100ba906105c1565b60405180910390fd5b5f5f90505b82518110156102a8575f8382815181106100e5576100e46105df565b5b602002602001015190505f73ffffffffffffffffffffffffffffffffffffffff168173ffffffffffffffffffffffffffffffffffffffff160361015d576040517f08c379a000000000000000000000000000000000000000000000000000000000815260040161015490610656565b60405180910390fd5b60015f8273ffffffffffffffffffffffffffffffffffffffff1673ffffffffffffffffffffffffffffffffffffffff1681526020019081526020015f205f9054906101000a900460ff16156101e7576040517f08c379a00000000000000000000000000000000000000000000000000000000081526004016101de906106be565b60405180910390fd5b6001805f8373ffffffffffffffffffffffffffffffffffffffff1673ffffffffffffffffffffffffffffffffffffffff1681526020019081526020015f205f6101000a81548160ff0219169083151502179055505f81908060018154018082558091505060019003905f5260205f20015f9091909190916101000a81548173ffffffffffffffffffffffffffffffffffffffff021916908373ffffffffffffffffffffffffffffffffffffffff1602179055505080806001019150506100c8565b508060028190555050506106dc565b5f604051905090565b5f5ffd5b5f5ffd5b5f5ffd5b5f601f19601f8301169050919050565b7f4e487b71000000000000000000000000000000000000000000000000000000005f52604160045260245ffd5b610312826102cc565b810181811067ffffffffffffffff82111715610331576103306102dc565b5b80604052505050565b5f6103436102b7565b905061034f8282610309565b919050565b5f67ffffffffffffffff82111561036e5761036d6102dc565b5b602082029050602081019050919050565b5f5ffd5b5f73ffffffffffffffffffffffffffffffffffffffff82169050919050565b5f6103ac82610383565b9050919050565b6103bc816103a2565b81146103c6575f5ffd5b50565b5f815190506103d7816103b3565b92915050565b5f6103ef6103ea84610354565b61033a565b905080838252602082019050602084028301858111156104125761041161037f565b5b835b8181101561043b578061042788826103c9565b845260208401935050602081019050610414565b5050509392505050565b5f82601f830112610459576104586102c8565b5b81516104698482602086016103dd565b91505092915050565b5f819050919050565b61048481610472565b811461048e575f5ffd5b50565b5f8151905061049f8161047b565b92915050565b5f5f604083850312156104bb576104ba6102c0565b5b5f83015167ffffffffffffffff8111156104d8576104d76102c4565b5b6104e485828601610445565b92505060206104f585828601610491565b9150509250929050565b5f82825260208201905092915050565b7f4f776e65727320726571756972656400000000000000000000000000000000005f82015250565b5f610543600f836104ff565b915061054e8261050f565b602082019050919050565b5f6020820190508181035f83015261057081610537565b9050919050565b7f496e76616c6964207468726573686f6c640000000000000000000000000000005f82015250565b5f6105ab6011836104ff565b91506105b682610577565b602082019050919050565b5f6020820190508181035f8301526105d88161059f565b9050919050565b7f4e487b71000000000000000000000000000000000000000000000000000000005f52603260045260245ffd5b7f496e76616c6964206f776e6572000000000000000000000000000000000000005f82015250565b5f610640600d836104ff565b915061064b8261060c565b602082019050919050565b5f6020820190508181035f83015261066d81610634565b9050919050565b7f4f776e6572206e6f7420756e69717565000000000000000000000000000000005f82015250565b5f6106a86010836104ff565b91506106b382610674565b602082019050919050565b5f6020820190508181035f8301526106d58161069c565b9050919050565b612853806106e95f395ff3fe6080604052600436106100eb575f3560e01c806342cde4e811610089578063a0e67e2b11610058578063a0e67e2b1461036e578063c01a8c8414610398578063c6427474146103c0578063ee22610b146103e857610142565b806342cde4e8146102a0578063694e80c3146102ca57806380f59a65146102f25780639ace38c21461032e57610142565b80632e7700f0116100c55780632e7700f0146101d25780632f54bf6e146101fc57806333ea3dc8146102385780633cc38f5c1461027857610142565b8063025e7c2714610146578063173825d91461018257806320ea8d86146101aa57610142565b36610142573373ffffffffffffffffffffffffffffffffffffffff167f90890809c654f11d6e72a28fa60149770a0d11ec6c92319d6ceb2bb0a4ea1a15344760405161013892919061199c565b60405180910390a2005b5f5ffd5b348015610151575f5ffd5b5061016c600480360381019061016791906119f5565b610410565b6040516101799190611a5f565b60405180910390f35b34801561018d575f5ffd5b506101a860048036038101906101a39190611aa2565b61044a565b005b3480156101b5575f5ffd5b506101d060048036038101906101cb91906119f5565b6107f7565b005b3480156101dd575f5ffd5b506101e6610abc565b6040516101f39190611acd565b60405180910390f35b348015610207575f5ffd5b50610222600480360381019061021d9190611aa2565b610ac8565b60405161022f9190611b00565b60405180910390f35b348015610243575f5ffd5b5061025e600480360381019061025991906119f5565b610ae5565b60405161026f959493929190611b89565b60405180910390f35b348015610283575f5ffd5b5061029e60048036038101906102999190611be1565b610bee565b005b3480156102ab575f5ffd5b506102b4610eea565b6040516102c19190611acd565b60405180910390f35b3480156102d5575f5ffd5b506102f060048036038101906102eb91906119f5565b610ef0565b005b3480156102fd575f5ffd5b5061031860048036038101906103139190611c1f565b610ff1565b6040516103259190611b00565b60405180910390f35b348015610339575f5ffd5b50610354600480360381019061034f91906119f5565b61101b565b604051610365959493929190611b89565b60405180910390f35b348015610379575f5ffd5b5061038261110d565b60405161038f9190611d14565b60405180910390f35b3480156103a3575f5ffd5b506103be60048036038101906103b991906119f5565b611197565b005b3480156103cb575f5ffd5b506103e660048036038101906103e19190611d95565b611460565b005b3480156103f3575f5ffd5b5061040e600480360381019061040991906119f5565b61169c565b005b5f818154811061041e575f80fd5b905f5260205f20015f915054906101000a900473ffffffffffffffffffffffffffffffffffffffff1681565b3073ffffffffffffffffffffffffffffffffffffffff163373ffffffffffffffffffffffffffffffffffffffff16146104b8576040517f08c379a00000000000000000000000000000000000000000000000000000000081526004016104af90611e60565b60405180910390fd5b60015f8273ffffffffffffffffffffffffffffffffffffffff1673ffffffffffffffffffffffffffffffffffffffff1681526020019081526020015f205f9054906101000a900460ff16610541576040517f08c379a000000000000000000000000000000000000000000000000000000000815260040161053890611ec8565b60405180910390fd5b5f60015f8373ffffffffffffffffffffffffffffffffffffffff1673ffffffffffffffffffffffffffffffffffffffff1681526020019081526020015f205f6101000a81548160ff0219169083151502179055505f5f90505b60015f805490506105ab9190611f13565b8110156106d4578173ffffffffffffffffffffffffffffffffffffffff165f82815481106105dc576105db611f46565b5b905f5260205f20015f9054906101000a900473ffffffffffffffffffffffffffffffffffffffff1673ffffffffffffffffffffffffffffffffffffffff16036106c7575f60015f805490506106319190611f13565b8154811061064257610641611f46565b5b905f5260205f20015f9054906101000a900473ffffffffffffffffffffffffffffffffffffffff165f828154811061067d5761067c611f46565b5b905f5260205f20015f6101000a81548173ffffffffffffffffffffffffffffffffffffffff021916908373ffffffffffffffffffffffffffffffffffffffff1602179055506106d4565b808060010191505061059a565b505f8054806106e6576106e5611f73565b5b600190038181905f5260205f20015f6101000a81549073ffffffffffffffffffffffffffffffffffffffff021916905590555f80549050600254111561076b575f805490506002819055507f6c4ce60fd690e1216286a10b875c5662555f10774484e58142cedd7a90781baa6002546040516107629190611acd565b60405180910390a15b5f5f80549050116107b1576040517f08c379a00000000000000000000000000000000000000000000000000000000081526004016107a890611fea565b60405180910390fd5b8073ffffffffffffffffffffffffffffffffffffffff167f58619076adf5bb0943d100ef88d52d7c3fd691b19d3a9071b555b651fbf418da60405160405180910390a250565b60015f3373ffffffffffffffffffffffffffffffffffffffff1673ffffffffffffffffffffffffffffffffffffffff1681526020019081526020015f205f9054906101000a900460ff16610880576040517f08c379a000000000000000000000000000000000000000000000000000000000815260040161087790611ec8565b60405180910390fd5b8060048054905081106108c8576040517f08c379a00000000000000000000000000000000000000000000000000000000081526004016108bf90612052565b60405180910390fd5b81600481815481106108dd576108dc611f46565b5b905f5260205f2090600502016003015f9054906101000a900460ff1615610939576040517f08c379a0000000000000000000000000000000000000000000000000000000008152600401610930906120ba565b60405180910390fd5b60035f8481526020019081526020015f205f3373ffffffffffffffffffffffffffffffffffffffff1673ffffffffffffffffffffffffffffffffffffffff1681526020019081526020015f205f9054906101000a900460ff166109d1576040517f08c379a00000000000000000000000000000000000000000000000000000000081526004016109c890612122565b60405180910390fd5b5f600484815481106109e6576109e5611f46565b5b905f5260205f20906005020190506001816004015f828254610a089190611f13565b925050819055505f60035f8681526020019081526020015f205f3373ffffffffffffffffffffffffffffffffffffffff1673ffffffffffffffffffffffffffffffffffffffff1681526020019081526020015f205f6101000a81548160ff021916908315150217905550833373ffffffffffffffffffffffffffffffffffffffff167ff0dca620e2e81f7841d07bcc105e1704fb01475b278a9d4c236e1c62945edd5560405160405180910390a350505050565b5f600480549050905090565b6001602052805f5260405f205f915054906101000a900460ff1681565b5f5f60605f5f5f60048781548110610b0057610aff611f46565b5b905f5260205f2090600502019050805f015f9054906101000a900473ffffffffffffffffffffffffffffffffffffffff16816001015482600201836003015f9054906101000a900460ff168460040154828054610b5c9061216d565b80601f0160208091040260200160405190810160405280929190818152602001828054610b889061216d565b8015610bd35780601f10610baa57610100808354040283529160200191610bd3565b820191905f5260205f20905b815481529060010190602001808311610bb657829003601f168201915b50505050509250955095509550955095505091939590929450565b3073ffffffffffffffffffffffffffffffffffffffff163373ffffffffffffffffffffffffffffffffffffffff1614610c5c576040517f08c379a0000000000000000000000000000000000000000000000000000000008152600401610c5390611e60565b60405180910390fd5b5f73ffffffffffffffffffffffffffffffffffffffff168273ffffffffffffffffffffffffffffffffffffffff1603610cca576040517f08c379a0000000000000000000000000000000000000000000000000000000008152600401610cc1906121e7565b60405180910390fd5b60015f8373ffffffffffffffffffffffffffffffffffffffff1673ffffffffffffffffffffffffffffffffffffffff1681526020019081526020015f205f9054906101000a900460ff1615610d54576040517f08c379a0000000000000000000000000000000000000000000000000000000008152600401610d4b9061224f565b60405180910390fd5b5f81118015610d73575060015f80549050610d6f919061226d565b8111155b610db2576040517f08c379a0000000000000000000000000000000000000000000000000000000008152600401610da9906122ea565b60405180910390fd5b6001805f8473ffffffffffffffffffffffffffffffffffffffff1673ffffffffffffffffffffffffffffffffffffffff1681526020019081526020015f205f6101000a81548160ff0219169083151502179055505f82908060018154018082558091505060019003905f5260205f20015f9091909190916101000a81548173ffffffffffffffffffffffffffffffffffffffff021916908373ffffffffffffffffffffffffffffffffffffffff160217905550806002819055508173ffffffffffffffffffffffffffffffffffffffff167f994a936646fe87ffe4f1e469d3d6aa417d6b855598397f323de5b449f765f0c360405160405180910390a27f6c4ce60fd690e1216286a10b875c5662555f10774484e58142cedd7a90781baa81604051610ede9190611acd565b60405180910390a15050565b60025481565b3073ffffffffffffffffffffffffffffffffffffffff163373ffffffffffffffffffffffffffffffffffffffff1614610f5e576040517f08c379a0000000000000000000000000000000000000000000000000000000008152600401610f5590611e60565b60405180910390fd5b5f81118015610f7157505f805490508111155b610fb0576040517f08c379a0000000000000000000000000000000000000000000000000000000008152600401610fa7906122ea565b60405180910390fd5b806002819055507f6c4ce60fd690e1216286a10b875c5662555f10774484e58142cedd7a90781baa81604051610fe69190611acd565b60405180910390a150565b6003602052815f5260405f20602052805f5260405f205f915091509054906101000a900460ff1681565b6004818154811061102a575f80fd5b905f5260205f2090600502015f91509050805f015f9054906101000a900473ffffffffffffffffffffffffffffffffffffffff16908060010154908060020180546110749061216d565b80601f01602080910402602001604051908101604052809291908181526020018280546110a09061216d565b80156110eb5780601f106110c2576101008083540402835291602001916110eb565b820191905f5260205f20905b8154815290600101906020018083116110ce57829003601f168201915b505050505090806003015f9054906101000a900460ff16908060040154905085565b60605f80548060200260200160405190810160405280929190818152602001828054801561118d57602002820191905f5260205f20905b815f9054906101000a900473ffffffffffffffffffffffffffffffffffffffff1673ffffffffffffffffffffffffffffffffffffffff1681526020019060010190808311611144575b5050505050905090565b60015f3373ffffffffffffffffffffffffffffffffffffffff1673ffffffffffffffffffffffffffffffffffffffff1681526020019081526020015f205f9054906101000a900460ff16611220576040517f08c379a000000000000000000000000000000000000000000000000000000000815260040161121790611ec8565b60405180910390fd5b806004805490508110611268576040517f08c379a000000000000000000000000000000000000000000000000000000000815260040161125f90612052565b60405180910390fd5b816004818154811061127d5761127c611f46565b5b905f5260205f2090600502016003015f9054906101000a900460ff16156112d9576040517f08c379a00000000000000000000000000000000000000000000000000000000081526004016112d0906120ba565b60405180910390fd5b8260035f8281526020019081526020015f205f3373ffffffffffffffffffffffffffffffffffffffff1673ffffffffffffffffffffffffffffffffffffffff1681526020019081526020015f205f9054906101000a900460ff1615611373576040517f08c379a000000000000000000000000000000000000000000000000000000000815260040161136a90612352565b60405180910390fd5b5f6004858154811061138857611387611f46565b5b905f5260205f20906005020190506001816004015f8282546113aa919061226d565b92505081905550600160035f8781526020019081526020015f205f3373ffffffffffffffffffffffffffffffffffffffff1673ffffffffffffffffffffffffffffffffffffffff1681526020019081526020015f205f6101000a81548160ff021916908315150217905550843373ffffffffffffffffffffffffffffffffffffffff167f5cbe105e36805f7820e291f799d5794ff948af2a5f664e580382defb6339004160405160405180910390a35050505050565b60015f3373ffffffffffffffffffffffffffffffffffffffff1673ffffffffffffffffffffffffffffffffffffffff1681526020019081526020015f205f9054906101000a900460ff166114e9576040517f08c379a00000000000000000000000000000000000000000000000000000000081526004016114e090611ec8565b60405180910390fd5b5f600480549050905060046040518060a001604052808773ffffffffffffffffffffffffffffffffffffffff16815260200186815260200185858080601f0160208091040260200160405190810160405280939291908181526020018383808284375f81840152601f19601f8201169050808301925050505050505081526020015f151581526020015f815250908060018154018082558091505060019003905f5260205f2090600502015f909190919091505f820151815f015f6101000a81548173ffffffffffffffffffffffffffffffffffffffff021916908373ffffffffffffffffffffffffffffffffffffffff1602179055506020820151816001015560408201518160020190816115ff919061254e565b506060820151816003015f6101000a81548160ff0219169083151502179055506080820151816004015550508473ffffffffffffffffffffffffffffffffffffffff16813373ffffffffffffffffffffffffffffffffffffffff167fd5a05bf70715ad82a09a756320284a1b54c9ff74cd0f8cce6219e79b563fe59d87878760405161168d93929190612657565b60405180910390a45050505050565b60015f3373ffffffffffffffffffffffffffffffffffffffff1673ffffffffffffffffffffffffffffffffffffffff1681526020019081526020015f205f9054906101000a900460ff16611725576040517f08c379a000000000000000000000000000000000000000000000000000000000815260040161171c90611ec8565b60405180910390fd5b80600480549050811061176d576040517f08c379a000000000000000000000000000000000000000000000000000000000815260040161176490612052565b60405180910390fd5b816004818154811061178257611781611f46565b5b905f5260205f2090600502016003015f9054906101000a900460ff16156117de576040517f08c379a00000000000000000000000000000000000000000000000000000000081526004016117d5906120ba565b60405180910390fd5b5f600484815481106117f3576117f2611f46565b5b905f5260205f20906005020190506002548160040154101561184a576040517f08c379a0000000000000000000000000000000000000000000000000000000008152600401611841906126f7565b60405180910390fd5b6001816003015f6101000a81548160ff0219169083151502179055505f815f015f9054906101000a900473ffffffffffffffffffffffffffffffffffffffff1673ffffffffffffffffffffffffffffffffffffffff168260010154836002016040516118b6919061279f565b5f6040518083038185875af1925050503d805f81146118f0576040519150601f19603f3d011682016040523d82523d5f602084013e6118f5565b606091505b5050905080611939576040517f08c379a0000000000000000000000000000000000000000000000000000000008152600401611930906127ff565b60405180910390fd5b843373ffffffffffffffffffffffffffffffffffffffff167f5445f318f4f5fcfb66592e68e0cc5822aa15664039bd5f0ffde24c5a8142b1ac60405160405180910390a35050505050565b5f819050919050565b61199681611984565b82525050565b5f6040820190506119af5f83018561198d565b6119bc602083018461198d565b9392505050565b5f5ffd5b5f5ffd5b6119d481611984565b81146119de575f5ffd5b50565b5f813590506119ef816119cb565b92915050565b5f60208284031215611a0a57611a096119c3565b5b5f611a17848285016119e1565b91505092915050565b5f73ffffffffffffffffffffffffffffffffffffffff82169050919050565b5f611a4982611a20565b9050919050565b611a5981611a3f565b82525050565b5f602082019050611a725f830184611a50565b92915050565b611a8181611a3f565b8114611a8b575f5ffd5b50565b5f81359050611a9c81611a78565b92915050565b5f60208284031215611ab757611ab66119c3565b5b5f611ac484828501611a8e565b91505092915050565b5f602082019050611ae05f83018461198d565b92915050565b5f8115159050919050565b611afa81611ae6565b82525050565b5f602082019050611b135f830184611af1565b92915050565b5f81519050919050565b5f82825260208201905092915050565b8281835e5f83830152505050565b5f601f19601f8301169050919050565b5f611b5b82611b19565b611b658185611b23565b9350611b75818560208601611b33565b611b7e81611b41565b840191505092915050565b5f60a082019050611b9c5f830188611a50565b611ba9602083018761198d565b8181036040830152611bbb8186611b51565b9050611bca6060830185611af1565b611bd7608083018461198d565b9695505050505050565b5f5f60408385031215611bf757611bf66119c3565b5b5f611c0485828601611a8e565b9250506020611c15858286016119e1565b9150509250929050565b5f5f60408385031215611c3557611c346119c3565b5b5f611c42858286016119e1565b9250506020611c5385828601611a8e565b9150509250929050565b5f81519050919050565b5f82825260208201905092915050565b5f819050602082019050919050565b611c8f81611a3f565b82525050565b5f611ca08383611c86565b60208301905092915050565b5f602082019050919050565b5f611cc282611c5d565b611ccc8185611c67565b9350611cd783611c77565b805f5b83811015611d07578151611cee8882611c95565b9750611cf983611cac565b925050600181019050611cda565b5085935050505092915050565b5f6020820190508181035f830152611d2c8184611cb8565b905092915050565b5f5ffd5b5f5ffd5b5f5ffd5b5f5f83601f840112611d5557611d54611d34565b5b8235905067ffffffffffffffff811115611d7257611d71611d38565b5b602083019150836001820283011115611d8e57611d8d611d3c565b5b9250929050565b5f5f5f5f60608587031215611dad57611dac6119c3565b5b5f611dba87828801611a8e565b9450506020611dcb878288016119e1565b935050604085013567ffffffffffffffff811115611dec57611deb6119c7565b5b611df887828801611d40565b925092505092959194509250565b5f82825260208201905092915050565b7f4f6e6c792077616c6c65742063616e2063616c6c2074686973000000000000005f82015250565b5f611e4a601983611e06565b9150611e5582611e16565b602082019050919050565b5f6020820190508181035f830152611e7781611e3e565b9050919050565b7f4e6f7420616e206f776e657200000000000000000000000000000000000000005f82015250565b5f611eb2600c83611e06565b9150611ebd82611e7e565b602082019050919050565b5f6020820190508181035f830152611edf81611ea6565b9050919050565b7f4e487b71000000000000000000000000000000000000000000000000000000005f52601160045260245ffd5b5f611f1d82611984565b9150611f2883611984565b9250828203905081811115611f4057611f3f611ee6565b5b92915050565b7f4e487b71000000000000000000000000000000000000000000000000000000005f52603260045260245ffd5b7f4e487b71000000000000000000000000000000000000000000000000000000005f52603160045260245ffd5b7f43616e6e6f742072656d6f7665206c617374206f776e657200000000000000005f82015250565b5f611fd4601883611e06565b9150611fdf82611fa0565b602082019050919050565b5f6020820190508181035f83015261200181611fc8565b9050919050565b7f547820646f6573206e6f742065786973740000000000000000000000000000005f82015250565b5f61203c601183611e06565b915061204782612008565b602082019050919050565b5f6020820190508181035f83015261206981612030565b9050919050565b7f547820616c7265616479206578656375746564000000000000000000000000005f82015250565b5f6120a4601383611e06565b91506120af82612070565b602082019050919050565b5f6020820190508181035f8301526120d181612098565b9050919050565b7f5478206e6f7420636f6e6669726d6564000000000000000000000000000000005f82015250565b5f61210c601083611e06565b9150612117826120d8565b602082019050919050565b5f6020820190508181035f83015261213981612100565b9050919050565b7f4e487b71000000000000000000000000000000000000000000000000000000005f52602260045260245ffd5b5f600282049050600182168061218457607f821691505b60208210810361219757612196612140565b5b50919050565b7f496e76616c6964206f776e6572000000000000000000000000000000000000005f82015250565b5f6121d1600d83611e06565b91506121dc8261219d565b602082019050919050565b5f6020820190508181035f8301526121fe816121c5565b9050919050565b7f416c7265616479206f776e6572000000000000000000000000000000000000005f82015250565b5f612239600d83611e06565b915061224482612205565b602082019050919050565b5f6020820190508181035f8301526122668161222d565b9050919050565b5f61227782611984565b915061228283611984565b925082820190508082111561229a57612299611ee6565b5b92915050565b7f496e76616c6964207468726573686f6c640000000000000000000000000000005f82015250565b5f6122d4601183611e06565b91506122df826122a0565b602082019050919050565b5f6020820190508181035f830152612301816122c8565b9050919050565b7f547820616c726561647920636f6e6669726d65640000000000000000000000005f82015250565b5f61233c601483611e06565b915061234782612308565b602082019050919050565b5f6020820190508181035f83015261236981612330565b9050919050565b7f4e487b71000000000000000000000000000000000000000000000000000000005f52604160045260245ffd5b5f819050815f5260205f209050919050565b5f6020601f8301049050919050565b5f82821b905092915050565b5f600883026123f97fffffffffffffffffffffffffffffffffffffffffffffffffffffffffffffffff826123be565b61240386836123be565b95508019841693508086168417925050509392505050565b5f819050919050565b5f61243e61243961243484611984565b61241b565b611984565b9050919050565b5f819050919050565b61245783612424565b61246b61246382612445565b8484546123ca565b825550505050565b5f5f905090565b612482612473565b61248d81848461244e565b505050565b5f5b828110156124b3576124a85f82840161247a565b600181019050612494565b505050565b601f8211156125065782821115612505576124d28161239d565b6124db836123af565b6124e4856123af565b60208610156124f1575f90505b80830161250082840382612492565b505050505b5b505050565b5f82821c905092915050565b5f6125265f198460080261250b565b1980831691505092915050565b5f61253e8383612517565b9150826002028217905092915050565b61255782611b19565b67ffffffffffffffff8111156125705761256f612370565b5b61257a825461216d565b6125858282856124b8565b5f60209050601f8311600181146125b6575f84156125a4578287015190505b6125ae8582612533565b865550612615565b601f1984166125c48661239d565b5f5b828110156125eb578489015182556001820191506020850194506020810190506125c6565b868310156126085784890151612604601f891682612517565b8355505b6001600288020188555050505b505050505050565b828183375f83830152505050565b5f6126368385611b23565b935061264383858461261d565b61264c83611b41565b840190509392505050565b5f60408201905061266a5f83018661198d565b818103602083015261267d81848661262b565b9050949350505050565b7f43616e6e6f7420657865637574653a204e6f7420656e6f75676820636f6e66695f8201527f726d6174696f6e73000000000000000000000000000000000000000000000000602082015250565b5f6126e1602883611e06565b91506126ec82612687565b604082019050919050565b5f6020820190508181035f83015261270e816126d5565b9050919050565b5f81905092915050565b5f815461272b8161216d565b6127358186612715565b9450600182165f811461274f576001811461276457612796565b60ff1983168652811515820286019350612796565b61276d8561239d565b5f5b8381101561278e5781548189015260018201915060208101905061276f565b838801955050505b50505092915050565b5f6127aa828461271f565b915081905092915050565b7f5478206661696c656400000000000000000000000000000000000000000000005f82015250565b5f6127e9600983611e06565b91506127f4826127b5565b602082019050919050565b5f6020820190508181035f830152612816816127dd565b905091905056fea2646970667358221220321f4fb2c672ea72d10279bcfaa9c746beb2374f0b369e0c121cf48ace4de3ef64736f6c63430008210033a2646970667358221220d46e4a52c561af5fd1ee281add6e474a689b93319a41af04e754c523de45e0b464736f6c63430008210033","linkReferences":{}},"methodIdentifiers":{"createWallet(address[],uint256)":"3800a55d","deployedWallets(uint256)":"8455c423","getWalletsCount()":"778b5aee"},"id":19}