{"abi":[{"type":"constructor","inputs":[{"name":"name_","type":"string","internalType":"string"},{"name":"symbol_","type":"string","internalType":"string"},{"name":"decimals_","type":"uint8","internalType":"uint8"},{"name":"initialSupply_","type":"uint256","internalType":"uint256"},{"name":"maxSupply_","type":"uint256","internalType":"uint256"}],"stateMutability":"nonpayable"},{"type":"function","name":"allowance","inputs":[{"name":"owner","type":"address","internalType":"address"},{"name":"spender","type":"address","internalType":"address"}],"outputs":[{"name":"","type":"uint256","internalType":"uint256"}],"stateMutability":"view"},{"type":"function","name":"approve","inputs":[{"name":"spender","type":"address","internalType":"address"},{"name":"amount","type":"uint256","internalType":"uint256"}],"outputs":[{"name":"","type":"bool","internalType":"bool"}],"stateMutability":"nonpayable"},{"type":"function","name":"balanceOf","inputs":[{"name":"account","type":"address","internalType":"address"}],"outputs":[{"name":"","type":"uint256","internalType":"uint256"}],"stateMutability":"view"},{"type":"function","name":"decimals","inputs":[],"outputs":[{"name":"","type":"uint8","internalType":"uint8"}],"stateMutability":"view"},{"type":"function","name":"maxSupply","inputs":[],"outputs":[{"name":"","type":"uint256","internalType":"uint256"}],"stateMutability":"view"},{"type":"function","name":"mint","inputs":[{"name":"account","type":"address","internalType":"address"},{"name":"amount","type":"uint256","internalType":"uint256"}],"outputs":[],"stateMutability":"nonpayable"},{"type":"function","name":"name","inputs":[],"outputs":[{"name":"","type":"string","internalType":"string"}],"stateMutability":"view"},{"type":"function","name":"owner","inputs":[],"outputs":[{"name":"","type":"address","internalType":"address"}],"stateMutability":"view"},{"type":"function","name":"symbol","inputs":[],"outputs":[{"name":"","type":"string","internalType":"string"}],"stateMutability":"view"},{"type":"function","name":"totalSupply","inputs":[],"outputs":[{"name":"","type":"uint256","internalType":"uint256"}],"stateMutability":"view"},{"type":"function","name":"transfer","inputs":[{"name":"to","type":"address","internalType":"address"},{"name":"amount","type":"uint256","internalType":"uint256"}],"outputs":[{"name":"","type":"bool","internalType":"bool"}],"stateMutability":"nonpayable"},{"type":"function","name":"transferFrom","inputs":[{"name":"from","type":"address","internalType":"address"},{"name":"to","type":"address","internalType":"address"},{"name":"amount","type":"uint256","internalType":"uint256"}],"outputs":[{"name":"","type":"bool","internalType":"bool"}],"stateMutability":"nonpayable"},{"type":"event","name":"Approval","inputs":[{"name":"owner","type":"address","indexed":true,"internalType":"address"},{"name":"spender","type":"address","indexed":true,"internalType":"address"},{"name":"value","type":"uint256","indexed":false,"internalType":"uint256"}],"anonymous":false},{"type":"event","name":"Transfer","inputs":[{"name":"from","type":"address","indexed":true,"internalType":"address"},{"name":"to","type":"address","indexed":true,"internalType":"address"},{"name":"value","type":"uint256","indexed":false,"internalType":"uint256"}],"anonymous":false}],"bytecode":{"object":"0x608060405234801561000f575f5ffd5b506040516120be3803806120be833981810160405281019061003191906103d6565b5f8111610073576040517f08c379a000000000000000000000000000000000000000000000000000000000815260040161006a90610505565b60405180910390fd5b808211156100b6576040517f08c379a00000000000000000000000000000000000000000000000000000000081526004016100ad90610593565b60405180910390fd5b845f90816100c491906107c9565b5083600190816100d491906107c9565b508260025f6101000a81548160ff021916908360ff16021790555082600a6100fc91906109f4565b816101079190610a3e565b6004819055503360055f6101000a81548173ffffffffffffffffffffffffffffffffffffffff021916908373ffffffffffffffffffffffffffffffffffffffff16021790555082600a61015a91906109f4565b826101659190610a3e565b60038190555060035460065f3373ffffffffffffffffffffffffffffffffffffffff1673ffffffffffffffffffffffffffffffffffffffff1681526020019081526020015f20819055503373ffffffffffffffffffffffffffffffffffffffff165f73ffffffffffffffffffffffffffffffffffffffff167fddf252ad1be2c89b69c2b068fc378daa952ba7f163c4a11628f55a4df523b3ef60035460405161020e9190610a8e565b60405180910390a35050505050610aa7565b5f604051905090565b5f5ffd5b5f5ffd5b5f5ffd5b5f5ffd5b5f601f19601f8301169050919050565b7f4e487b71000000000000000000000000000000000000000000000000000000005f52604160045260245ffd5b61027f82610239565b810181811067ffffffffffffffff8211171561029e5761029d610249565b5b80604052505050565b5f6102b0610220565b90506102bc8282610276565b919050565b5f67ffffffffffffffff8211156102db576102da610249565b5b6102e482610239565b9050602081019050919050565b8281835e5f83830152505050565b5f61031161030c846102c1565b6102a7565b90508281526020810184848401111561032d5761032c610235565b5b6103388482856102f1565b509392505050565b5f82601f83011261035457610353610231565b5b81516103648482602086016102ff565b91505092915050565b5f60ff82169050919050565b6103828161036d565b811461038c575f5ffd5b50565b5f8151905061039d81610379565b92915050565b5f819050919050565b6103b5816103a3565b81146103bf575f5ffd5b50565b5f815190506103d0816103ac565b92915050565b5f5f5f5f5f60a086880312156103ef576103ee610229565b5b5f86015167ffffffffffffffff81111561040c5761040b61022d565b5b61041888828901610340565b955050602086015167ffffffffffffffff8111156104395761043861022d565b5b61044588828901610340565b94505060406104568882890161038f565b9350506060610467888289016103c2565b9250506080610478888289016103c2565b9150509295509295909350565b5f82825260208201905092915050565b7f45524332303a206d617820737570706c79206d757374206265206772656174655f8201527f72207468616e207a65726f000000000000000000000000000000000000000000602082015250565b5f6104ef602b83610485565b91506104fa82610495565b604082019050919050565b5f6020820190508181035f83015261051c816104e3565b9050919050565b7f45524332303a20696e697469616c20737570706c792065786365656473206d615f8201527f7820737570706c79000000000000000000000000000000000000000000000000602082015250565b5f61057d602883610485565b915061058882610523565b604082019050919050565b5f6020820190508181035f8301526105aa81610571565b9050919050565b5f81519050919050565b7f4e487b71000000000000000000000000000000000000000000000000000000005f52602260045260245ffd5b5f60028204905060018216806105ff57607f821691505b602082108103610612576106116105bb565b5b50919050565b5f819050815f5260205f209050919050565b5f6020601f8301049050919050565b5f82821b905092915050565b5f600883026106747fffffffffffffffffffffffffffffffffffffffffffffffffffffffffffffffff82610639565b61067e8683610639565b95508019841693508086168417925050509392505050565b5f819050919050565b5f6106b96106b46106af846103a3565b610696565b6103a3565b9050919050565b5f819050919050565b6106d28361069f565b6106e66106de826106c0565b848454610645565b825550505050565b5f5f905090565b6106fd6106ee565b6107088184846106c9565b505050565b5f5b8281101561072e576107235f8284016106f5565b60018101905061070f565b505050565b601f82111561078157828211156107805761074d81610618565b6107568361062a565b61075f8561062a565b602086101561076c575f90505b80830161077b8284038261070d565b505050505b5b505050565b5f82821c905092915050565b5f6107a15f1984600802610786565b1980831691505092915050565b5f6107b98383610792565b9150826002028217905092915050565b6107d2826105b1565b67ffffffffffffffff8111156107eb576107ea610249565b5b6107f582546105e8565b610800828285610733565b5f60209050601f831160018114610831575f841561081f578287015190505b61082985826107ae565b865550610890565b601f19841661083f86610618565b5f5b8281101561086657848901518255600182019150602085019450602081019050610841565b86831015610883578489015161087f601f891682610792565b8355505b6001600288020188555050505b505050505050565b7f4e487b71000000000000000000000000000000000000000000000000000000005f52601160045260245ffd5b5f8160011c9050919050565b5f5f8291508390505b600185111561091a578086048111156108f6576108f5610898565b5b60018516156109055780820291505b8081029050610913856108c5565b94506108da565b94509492505050565b5f8261093257600190506109ed565b8161093f575f90506109ed565b8160018114610955576002811461095f5761098e565b60019150506109ed565b60ff84111561097157610970610898565b5b8360020a91508482111561098857610987610898565b5b506109ed565b5060208310610133831016604e8410600b84101617156109c35782820a9050838111156109be576109bd610898565b5b6109ed565b6109d084848460016108d1565b925090508184048111156109e7576109e6610898565b5b81810290505b9392505050565b5f6109fe826103a3565b9150610a098361036d565b9250610a367fffffffffffffffffffffffffffffffffffffffffffffffffffffffffffffffff8484610923565b905092915050565b5f610a48826103a3565b9150610a53836103a3565b9250828202610a61816103a3565b91508282048414831517610a7857610a77610898565b5b5092915050565b610a88816103a3565b82525050565b5f602082019050610aa15f830184610a7f565b92915050565b61160a80610ab45f395ff3fe608060405234801561000f575f5ffd5b50600436106100b2575f3560e01c806370a082311161006f57806370a082311461018c5780638da5cb5b146101bc57806395d89b41146101da578063a9059cbb146101f8578063d5abeb0114610228578063dd62ed3e14610246576100b2565b806306fdde03146100b6578063095ea7b3146100d457806318160ddd1461010457806323b872dd14610122578063313ce5671461015257806340c10f1914610170575b5f5ffd5b6100be610276565b6040516100cb9190610c72565b60405180910390f35b6100ee60048036038101906100e99190610d23565b610305565b6040516100fb9190610d7b565b60405180910390f35b61010c610320565b6040516101199190610da3565b60405180910390f35b61013c60048036038101906101379190610dbc565b610329565b6040516101499190610d7b565b60405180910390f35b61015a610350565b6040516101679190610e27565b60405180910390f35b61018a60048036038101906101859190610d23565b610365565b005b6101a660048036038101906101a19190610e40565b61047e565b6040516101b39190610da3565b60405180910390f35b6101c46104c4565b6040516101d19190610e7a565b60405180910390f35b6101e26104ec565b6040516101ef9190610c72565b60405180910390f35b610212600480360381019061020d9190610d23565b61057c565b60405161021f9190610d7b565b60405180910390f35b610230610597565b60405161023d9190610da3565b60405180910390f35b610260600480360381019061025b9190610e93565b6105a0565b60405161026d9190610da3565b60405180910390f35b60605f805461028490610efe565b80601f01602080910402602001604051908101604052809291908181526020018280546102b090610efe565b80156102fb5780601f106102d2576101008083540402835291602001916102fb565b820191905f5260205f20905b8154815290600101906020018083116102de57829003601f168201915b5050505050905090565b5f5f339050610315818585610622565b600191505092915050565b5f600354905090565b5f5f3390506103398582856107e5565b610344858585610870565b60019150509392505050565b5f60025f9054906101000a900460ff16905090565b60055f9054906101000a900473ffffffffffffffffffffffffffffffffffffffff1673ffffffffffffffffffffffffffffffffffffffff163373ffffffffffffffffffffffffffffffffffffffff16146103f4576040517f08c379a00000000000000000000000000000000000000000000000000000000081526004016103eb90610f78565b60405180910390fd5b5f60025f9054906101000a900460ff16600a61041091906110f2565b8261041b919061113c565b90506004548160035461042e919061117d565b111561046f576040517f08c379a000000000000000000000000000000000000000000000000000000000815260040161046690611220565b60405180910390fd5b6104798382610ac9565b505050565b5f60065f8373ffffffffffffffffffffffffffffffffffffffff1673ffffffffffffffffffffffffffffffffffffffff1681526020019081526020015f20549050919050565b5f60055f9054906101000a900473ffffffffffffffffffffffffffffffffffffffff16905090565b6060600180546104fb90610efe565b80601f016020809104026020016040519081016040528092919081815260200182805461052790610efe565b80156105725780601f1061054957610100808354040283529160200191610572565b820191905f5260205f20905b81548152906001019060200180831161055557829003601f168201915b5050505050905090565b5f5f33905061058c818585610870565b600191505092915050565b5f600454905090565b5f60075f8473ffffffffffffffffffffffffffffffffffffffff1673ffffffffffffffffffffffffffffffffffffffff1681526020019081526020015f205f8373ffffffffffffffffffffffffffffffffffffffff1673ffffffffffffffffffffffffffffffffffffffff1681526020019081526020015f2054905092915050565b5f73ffffffffffffffffffffffffffffffffffffffff168373ffffffffffffffffffffffffffffffffffffffff1603610690576040517f08c379a0000000000000000000000000000000000000000000000000000000008152600401610687906112ae565b60405180910390fd5b5f73ffffffffffffffffffffffffffffffffffffffff168273ffffffffffffffffffffffffffffffffffffffff16036106fe576040517f08c379a00000000000000000000000000000000000000000000000000000000081526004016106f59061133c565b60405180910390fd5b8060075f8573ffffffffffffffffffffffffffffffffffffffff1673ffffffffffffffffffffffffffffffffffffffff1681526020019081526020015f205f8473ffffffffffffffffffffffffffffffffffffffff1673ffffffffffffffffffffffffffffffffffffffff1681526020019081526020015f20819055508173ffffffffffffffffffffffffffffffffffffffff168373ffffffffffffffffffffffffffffffffffffffff167f8c5be1e5ebec7d5bd14f71427d1e84f3dd0314c0f7b2291e5b200ac8c7c3b925836040516107d89190610da3565b60405180910390a3505050565b5f6107f084846105a0565b90507fffffffffffffffffffffffffffffffffffffffffffffffffffffffffffffffff811461086a578181101561085c576040517f08c379a0000000000000000000000000000000000000000000000000000000008152600401610853906113a4565b60405180910390fd5b6108698484848403610622565b5b50505050565b5f73ffffffffffffffffffffffffffffffffffffffff168373ffffffffffffffffffffffffffffffffffffffff16036108de576040517f08c379a00000000000000000000000000000000000000000000000000000000081526004016108d590611432565b60405180910390fd5b5f73ffffffffffffffffffffffffffffffffffffffff168273ffffffffffffffffffffffffffffffffffffffff160361094c576040517f08c379a0000000000000000000000000000000000000000000000000000000008152600401610943906114c0565b60405180910390fd5b5f60065f8573ffffffffffffffffffffffffffffffffffffffff1673ffffffffffffffffffffffffffffffffffffffff1681526020019081526020015f20549050818110156109d0576040517f08c379a00000000000000000000000000000000000000000000000000000000081526004016109c79061154e565b60405180910390fd5b81810360065f8673ffffffffffffffffffffffffffffffffffffffff1673ffffffffffffffffffffffffffffffffffffffff1681526020019081526020015f20819055508160065f8573ffffffffffffffffffffffffffffffffffffffff1673ffffffffffffffffffffffffffffffffffffffff1681526020019081526020015f205f82825401925050819055508273ffffffffffffffffffffffffffffffffffffffff168473ffffffffffffffffffffffffffffffffffffffff167fddf252ad1be2c89b69c2b068fc378daa952ba7f163c4a11628f55a4df523b3ef84604051610abb9190610da3565b60405180910390a350505050565b5f73ffffffffffffffffffffffffffffffffffffffff168273ffffffffffffffffffffffffffffffffffffffff1603610b37576040517f08c379a0000000000000000000000000000000000000000000000000000000008152600401610b2e906115b6565b60405180910390fd5b8060035f828254610b48919061117d565b925050819055508060065f8473ffffffffffffffffffffffffffffffffffffffff1673ffffffffffffffffffffffffffffffffffffffff1681526020019081526020015f205f82825401925050819055508173ffffffffffffffffffffffffffffffffffffffff165f73ffffffffffffffffffffffffffffffffffffffff167fddf252ad1be2c89b69c2b068fc378daa952ba7f163c4a11628f55a4df523b3ef83604051610bf69190610da3565b60405180910390a35050565b5f81519050919050565b5f82825260208201905092915050565b8281835e5f83830152505050565b5f601f19601f8301169050919050565b5f610c4482610c02565b610c4e8185610c0c565b9350610c5e818560208601610c1c565b610c6781610c2a565b840191505092915050565b5f6020820190508181035f830152610c8a8184610c3a565b905092915050565b5f5ffd5b5f73ffffffffffffffffffffffffffffffffffffffff82169050919050565b5f610cbf82610c96565b9050919050565b610ccf81610cb5565b8114610cd9575f5ffd5b50565b5f81359050610cea81610cc6565b92915050565b5f819050919050565b610d0281610cf0565b8114610d0c575f5ffd5b50565b5f81359050610d1d81610cf9565b92915050565b5f5f60408385031215610d3957610d38610c92565b5b5f610d4685828601610cdc565b9250506020610d5785828601610d0f565b9150509250929050565b5f8115159050919050565b610d7581610d61565b82525050565b5f602082019050610d8e5f830184610d6c565b92915050565b610d9d81610cf0565b82525050565b5f602082019050610db65f830184610d94565b92915050565b5f5f5f60608486031215610dd357610dd2610c92565b5b5f610de086828701610cdc565b9350506020610df186828701610cdc565b9250506040610e0286828701610d0f565b9150509250925092565b5f60ff82169050919050565b610e2181610e0c565b82525050565b5f602082019050610e3a5f830184610e18565b92915050565b5f60208284031215610e5557610e54610c92565b5b5f610e6284828501610cdc565b91505092915050565b610e7481610cb5565b82525050565b5f602082019050610e8d5f830184610e6b565b92915050565b5f5f60408385031215610ea957610ea8610c92565b5b5f610eb685828601610cdc565b9250506020610ec785828601610cdc565b9150509250929050565b7f4e487b71000000000000000000000000000000000000000000000000000000005f52602260045260245ffd5b5f6002820490506001821680610f1557607f821691505b602082108103610f2857610f27610ed1565b5b50919050565b7f45524332303a2063616c6c6572206973206e6f7420746865206f776e657200005f82015250565b5f610f62601e83610c0c565b9150610f6d82610f2e565b602082019050919050565b5f6020820190508181035f830152610f8f81610f56565b9050919050565b7f4e487b71000000000000000000000000000000000000000000000000000000005f52601160045260245ffd5b5f8160011c9050919050565b5f5f8291508390505b600185111561101857808604811115610ff457610ff3610f96565b5b60018516156110035780820291505b808102905061101185610fc3565b9450610fd8565b94509492505050565b5f8261103057600190506110eb565b8161103d575f90506110eb565b8160018114611053576002811461105d5761108c565b60019150506110eb565b60ff84111561106f5761106e610f96565b5b8360020a91508482111561108657611085610f96565b5b506110eb565b5060208310610133831016604e8410600b84101617156110c15782820a9050838111156110bc576110bb610f96565b5b6110eb565b6110ce8484846001610fcf565b925090508184048111156110e5576110e4610f96565b5b81810290505b9392505050565b5f6110fc82610cf0565b915061110783610e0c565b92506111347fffffffffffffffffffffffffffffffffffffffffffffffffffffffffffffffff8484611021565b905092915050565b5f61114682610cf0565b915061115183610cf0565b925082820261115f81610cf0565b9150828204841483151761117657611175610f96565b5b5092915050565b5f61118782610cf0565b915061119283610cf0565b92508282019050808211156111aa576111a9610f96565b5b92915050565b7f45524332303a206d696e7420776f756c6420657863656564206d6178207375705f8201527f706c790000000000000000000000000000000000000000000000000000000000602082015250565b5f61120a602383610c0c565b9150611215826111b0565b604082019050919050565b5f6020820190508181035f830152611237816111fe565b9050919050565b7f45524332303a20617070726f76652066726f6d20746865207a65726f206164645f8201527f7265737300000000000000000000000000000000000000000000000000000000602082015250565b5f611298602483610c0c565b91506112a38261123e565b604082019050919050565b5f6020820190508181035f8301526112c58161128c565b9050919050565b7f45524332303a20617070726f766520746f20746865207a65726f2061646472655f8201527f7373000000000000000000000000000000000000000000000000000000000000602082015250565b5f611326602283610c0c565b9150611331826112cc565b604082019050919050565b5f6020820190508181035f8301526113538161131a565b9050919050565b7f45524332303a20696e73756666696369656e7420616c6c6f77616e63650000005f82015250565b5f61138e601d83610c0c565b91506113998261135a565b602082019050919050565b5f6020820190508181035f8301526113bb81611382565b9050919050565b7f45524332303a207472616e736665722066726f6d20746865207a65726f2061645f8201527f6472657373000000000000000000000000000000000000000000000000000000602082015250565b5f61141c602583610c0c565b9150611427826113c2565b604082019050919050565b5f6020820190508181035f83015261144981611410565b9050919050565b7f45524332303a207472616e7366657220746f20746865207a65726f20616464725f8201527f6573730000000000000000000000000000000000000000000000000000000000602082015250565b5f6114aa602383610c0c565b91506114b582611450565b604082019050919050565b5f6020820190508181035f8301526114d78161149e565b9050919050565b7f45524332303a207472616e7366657220616d6f756e74206578636565647320625f8201527f616c616e63650000000000000000000000000000000000000000000000000000602082015250565b5f611538602683610c0c565b9150611543826114de565b604082019050919050565b5f6020820190508181035f8301526115658161152c565b9050919050565b7f45524332303a206d696e7420746f20746865207a65726f2061646472657373005f82015250565b5f6115a0601f83610c0c565b91506115ab8261156c565b602082019050919050565b5f6020820190508181035f8301526115cd81611594565b905091905056fea2646970667358221220cbb876036f1100525b7ecf95558aa04c16d9259fcaf93e8a6b565753ca197f3f64736f6c63430008210033","linkReferences":{}},"methodIdentifiers":{"allowance(address,address)":"dd62ed3e","approve(address,uint256)":"095ea7b3","balanceOf(address)":"70a08231","decimals()":"313ce567","maxSupply()":"d5abeb01","mint(address,uint256)":"40c10f19","name()":"06fdde03","owner()":"8da5cb5b","symbol()":"95d89b41","totalSupply()":"18160ddd","transfer(address,uint256)":"a9059cbb","transferFrom(address,address,uint256)":"23b872dd"},"id":16}