{"abi":[{"type":"constructor","inputs":[{"name":"_tokenAddress","type":"address","internalType":"address"}],"stateMutability":"nonpayable"},{"type":"function","name":"admin","inputs":[],"outputs":[{"name":"","type":"address","internalType":"address"}],"stateMutability":"view"},{"type":"function","name":"getAllStaffIds","inputs":[],"outputs":[{"name":"","type":"uint256[]","internalType":"uint256[]"}],"stateMutability":"view"},{"type":"function","name":"getAllStudentIds","inputs":[],"outputs":[{"name":"","type":"uint256[]","internalType":"uint256[]"}],"stateMutability":"view"},{"type":"function","name":"getContractTokenBalance","inputs":[],"outputs":[{"name":"","type":"uint256","internalType":"uint256"}],"stateMutability":"view"},{"type":"function","name":"getLevelFee","inputs":[{"name":"_level","type":"uint16","internalType":"uint16"}],"outputs":[{"name":"","type":"uint256","internalType":"uint256"}],"stateMutability":"view"},{"type":"function","name":"getStaffDetails","inputs":[{"name":"_id","type":"uint256","internalType":"uint256"}],"outputs":[{"name":"","type":"tuple","internalType":"struct SchoolManagement.Staff","components":[{"name":"name","type":"string","internalType":"string"},{"name":"id","type":"uint256","internalType":"uint256"},{"name":"staffAddress","type":"address","internalType":"address"},{"name":"totalPaid","type":"uint256","internalType":"uint256"}]}],"stateMutability":"view"},{"type":"function","name":"getStudentDetails","inputs":[{"name":"_id","type":"uint256","internalType":"uint256"}],"outputs":[{"name":"","type":"tuple","internalType":"struct SchoolManagement.Student","components":[{"name":"name","type":"string","internalType":"string"},{"name":"age","type":"uint8","internalType":"uint8"},{"name":"id","type":"uint256","internalType":"uint256"},{"name":"level","type":"uint16","internalType":"uint16"},{"name":"studentAddress","type":"address","internalType":"address"},{"name":"payment","type":"tuple","internalType":"struct SchoolManagement.Payment","components":[{"name":"status","type":"uint8","internalType":"enum SchoolManagement.PaymentStatus"},{"name":"timestamp","type":"uint256","internalType":"uint256"},{"name":"amount","type":"uint256","internalType":"uint256"},{"name":"level","type":"uint16","internalType":"uint16"}]}]}],"stateMutability":"view"},{"type":"function","name":"levelFees","inputs":[{"name":"","type":"uint16","internalType":"uint16"}],"outputs":[{"name":"","type":"uint256","internalType":"uint256"}],"stateMutability":"view"},{"type":"function","name":"payStaff","inputs":[{"name":"_staffId","type":"uint256","internalType":"uint256"},{"name":"_amount","type":"uint256","internalType":"uint256"}],"outputs":[],"stateMutability":"nonpayable"},{"type":"function","name":"registerStaff","inputs":[{"name":"_name","type":"string","internalType":"string"},{"name":"_id","type":"uint256","internalType":"uint256"}],"outputs":[],"stateMutability":"nonpayable"},{"type":"function","name":"registerStudent","inputs":[{"name":"_name","type":"string","internalType":"string"},{"name":"_age","type":"uint8","internalType":"uint8"},{"name":"_level","type":"uint16","internalType":"uint16"},{"name":"_id","type":"uint256","internalType":"uint256"}],"outputs":[],"stateMutability":"nonpayable"},{"type":"function","name":"schoolToken","inputs":[],"outputs":[{"name":"","type":"address","internalType":"contract IERC20"}],"stateMutability":"view"},{"type":"function","name":"setLevelFee","inputs":[{"name":"_level","type":"uint16","internalType":"uint16"},{"name":"_fee","type":"uint256","internalType":"uint256"}],"outputs":[],"stateMutability":"nonpayable"},{"type":"function","name":"staffIdByAddress","inputs":[{"name":"","type":"address","internalType":"address"}],"outputs":[{"name":"","type":"uint256","internalType":"uint256"}],"stateMutability":"view"},{"type":"function","name":"staffIds","inputs":[{"name":"","type":"uint256","internalType":"uint256"}],"outputs":[{"name":"","type":"uint256","internalType":"uint256"}],"stateMutability":"view"},{"type":"function","name":"staffs","inputs":[{"name":"","type":"uint256","internalType":"uint256"}],"outputs":[{"name":"name","type":"string","internalType":"string"},{"name":"id","type":"uint256","internalType":"uint256"},{"name":"staffAddress","type":"address","internalType":"address"},{"name":"totalPaid","type":"uint256","internalType":"uint256"}],"stateMutability":"view"},{"type":"function","name":"studentIdByAddress","inputs":[{"name":"","type":"address","internalType":"address"}],"outputs":[{"name":"","type":"uint256","internalType":"uint256"}],"stateMutability":"view"},{"type":"function","name":"studentIds","inputs":[{"name":"","type":"uint256","internalType":"uint256"}],"outputs":[{"name":"","type":"uint256","internalType":"uint256"}],"stateMutability":"view"},{"type":"function","name":"students","inputs":[{"name":"","type":"uint256","internalType":"uint256"}],"outputs":[{"name":"name","type":"string","internalType":"string"},{"name":"age","type":"uint8","internalType":"uint8"},{"name":"id","type":"uint256","internalType":"uint256"},{"name":"level","type":"uint16","internalType":"uint16"},{"name":"studentAddress","type":"address","internalType":"address"},{"name":"payment","type":"tuple","internalType":"struct SchoolManagement.Payment","components":[{"name":"status","type":"uint8","internalType":"enum SchoolManagement.PaymentStatus"},{"name":"timestamp","type":"uint256","internalType":"uint256"},{"name":"amount","type":"uint256","internalType":"uint256"},{"name":"level","type":"uint16","internalType":"uint16"}]}],"stateMutability":"view"},{"type":"event","name":"PaymentUpdated","inputs":[{"name":"studentId","type":"uint256","indexed":true,"internalType":"uint256"},{"name":"amount","type":"uint256","indexed":false,"internalType":"uint256"},{"name":"timestamp","type":"uint256","indexed":false,"internalType":"uint256"}],"anonymous":false},{"type":"event","name":"StaffPaid","inputs":[{"name":"staffId","type":"uint256","indexed":true,"internalType":"uint256"},{"name":"amount","type":"uint256","indexed":false,"internalType":"uint256"},{"name":"timestamp","type":"uint256","indexed":false,"internalType":"uint256"}],"anonymous":false},{"type":"event","name":"StaffRegistered","inputs":[{"name":"id","type":"uint256","indexed":true,"internalType":"uint256"},{"name":"name","type":"string","indexed":false,"internalType":"string"}],"anonymous":false},{"type":"event","name":"StudentRegistered","inputs":[{"name":"id","type":"uint256","indexed":true,"internalType":"uint256"},{"name":"name","type":"string","indexed":false,"internalType":"string"},{"name":"level","type":"uint16","indexed":false,"internalType":"uint16"}],"anonymous":false}],"bytecode":{"object":"0x608060405234801561000f575f5ffd5b5060405161324b38038061324b83398181016040528101906100319190610214565b5f73ffffffffffffffffffffffffffffffffffffffff168173ffffffffffffffffffffffffffffffffffffffff160361009f576040517f08c379a0000000000000000000000000000000000000000000000000000000008152600401610096906102bf565b60405180910390fd5b335f5f6101000a81548173ffffffffffffffffffffffffffffffffffffffff021916908373ffffffffffffffffffffffffffffffffffffffff1602179055508060015f6101000a81548173ffffffffffffffffffffffffffffffffffffffff021916908373ffffffffffffffffffffffffffffffffffffffff160217905550683635c9adc5dea0000060025f606461ffff1681526020019081526020015f2081905550685150ae84a8cdf0000060025f60c861ffff1681526020019081526020015f2081905550686c6b935b8bbd40000060025f61012c61ffff1681526020019081526020015f208190555068878678326eac90000060025f61019061ffff1681526020019081526020015f2081905550506102dd565b5f5ffd5b5f73ffffffffffffffffffffffffffffffffffffffff82169050919050565b5f6101e3826101ba565b9050919050565b6101f3816101d9565b81146101fd575f5ffd5b50565b5f8151905061020e816101ea565b92915050565b5f60208284031215610229576102286101b6565b5b5f61023684828501610200565b91505092915050565b5f82825260208201905092915050565b7f5363686f6f6c4d616e6167656d656e743a20496e76616c696420746f6b656e205f8201527f6164647265737300000000000000000000000000000000000000000000000000602082015250565b5f6102a960278361023f565b91506102b48261024f565b604082019050919050565b5f6020820190508181035f8301526102d68161029d565b9050919050565b612f61806102ea5f395ff3fe608060405234801561000f575f5ffd5b506004361061011f575f3560e01c806386a9b364116100ab578063de1b67961161006f578063de1b679614610347578063e1dddec914610377578063e4a8cf3914610393578063f851a440146103c3578063fab32f27146103e15761011f565b806386a9b36414610291578063c3acea74146102c1578063c8cdf074146102dd578063d596f063146102fb578063d6f702d51461032b5761011f565b806332b245a0116100f257806332b245a0146101c4578063498d4707146101f45780636f28c35514610227578063834d336c146102575780638580df9f146102755761011f565b806304153bfa1461012357806306ead22e146101535780632fa092ad14610188578063317d9453146101a6575b5f5ffd5b61013d600480360381019061013891906119b6565b610411565b60405161014a91906119f0565b60405180910390f35b61016d600480360381019061016891906119b6565b610431565b60405161017f96959493929190611bd3565b60405180910390f35b61019061059e565b60405161019d9190611c95565b60405180910390f35b6101ae6105c3565b6040516101bb91906119f0565b60405180910390f35b6101de60048036038101906101d99190611cd8565b610662565b6040516101eb91906119f0565b60405180910390f35b61020e600480360381019061020991906119b6565b610677565b60405161021e9493929190611d03565b60405180910390f35b610241600480360381019061023c91906119b6565b610748565b60405161024e91906119f0565b60405180910390f35b61025f610768565b60405161026c9190611df5565b60405180910390f35b61028f600480360381019061028a9190611e15565b6107be565b005b6102ab60048036038101906102a691906119b6565b610a44565b6040516102b89190611f93565b60405180910390f35b6102db60048036038101906102d69190612133565b610c6f565b005b6102e56111a5565b6040516102f29190611df5565b60405180910390f35b610315600480360381019061031091906121b3565b6111fb565b60405161032291906119f0565b60405180910390f35b610345600480360381019061034091906121de565b611210565b005b610361600480360381019061035c91906121b3565b611513565b60405161036e91906119f0565b60405180910390f35b610391600480360381019061038c9190612238565b61157d565b005b6103ad60048036038101906103a891906119b6565b6116b7565b6040516103ba91906122d6565b60405180910390f35b6103cb611830565b6040516103d891906122f6565b60405180910390f35b6103fb60048036038101906103f69190611cd8565b611854565b60405161040891906119f0565b60405180910390f35b60088181548110610420575f80fd5b905f5260205f20015f915090505481565b6003602052805f5260405f205f91509050805f0180546104509061233c565b80601f016020809104026020016040519081016040528092919081815260200182805461047c9061233c565b80156104c75780601f1061049e576101008083540402835291602001916104c7565b820191905f5260205f20905b8154815290600101906020018083116104aa57829003601f168201915b505050505090806001015f9054906101000a900460ff1690806002015490806003015f9054906101000a900461ffff16908060030160029054906101000a900473ffffffffffffffffffffffffffffffffffffffff1690806004016040518060800160405290815f82015f9054906101000a900460ff1660018111156105505761054f611aef565b5b600181111561056257610561611aef565b5b81526020016001820154815260200160028201548152602001600382015f9054906101000a900461ffff1661ffff1661ffff1681525050905086565b60015f9054906101000a900473ffffffffffffffffffffffffffffffffffffffff1681565b5f60015f9054906101000a900473ffffffffffffffffffffffffffffffffffffffff1673ffffffffffffffffffffffffffffffffffffffff166370a08231306040518263ffffffff1660e01b815260040161061e91906122f6565b602060405180830381865afa158015610639573d5f5f3e3d5ffd5b505050506040513d601f19601f8201168201806040525081019061065d9190612380565b905090565b6006602052805f5260405f205f915090505481565b6004602052805f5260405f205f91509050805f0180546106969061233c565b80601f01602080910402602001604051908101604052809291908181526020018280546106c29061233c565b801561070d5780601f106106e45761010080835404028352916020019161070d565b820191905f5260205f20905b8154815290600101906020018083116106f057829003601f168201915b505050505090806001015490806002015f9054906101000a900473ffffffffffffffffffffffffffffffffffffffff16908060030154905084565b60078181548110610757575f80fd5b905f5260205f20015f915090505481565b606060078054806020026020016040519081016040528092919081815260200182805480156107b457602002820191905f5260205f20905b8154815260200190600101908083116107a0575b5050505050905090565b5f5f9054906101000a900473ffffffffffffffffffffffffffffffffffffffff1673ffffffffffffffffffffffffffffffffffffffff163373ffffffffffffffffffffffffffffffffffffffff161461084c576040517f08c379a0000000000000000000000000000000000000000000000000000000008152600401610843906123f5565b60405180910390fd5b5f60045f8481526020019081526020015f2090505f8160010154036108a6576040517f08c379a000000000000000000000000000000000000000000000000000000000815260040161089d90612483565b60405180910390fd5b5f82116108e8576040517f08c379a00000000000000000000000000000000000000000000000000000000081526004016108df90612511565b60405180910390fd5b5f60015f9054906101000a900473ffffffffffffffffffffffffffffffffffffffff1673ffffffffffffffffffffffffffffffffffffffff1663a9059cbb836002015f9054906101000a900473ffffffffffffffffffffffffffffffffffffffff16856040518363ffffffff1660e01b815260040161096892919061252f565b6020604051808303815f875af1158015610984573d5f5f3e3d5ffd5b505050506040513d601f19601f820116820180604052508101906109a8919061258b565b9050806109ea576040517f08c379a00000000000000000000000000000000000000000000000000000000081526004016109e190612626565b60405180910390fd5b82826003015f8282546109fd9190612671565b92505081905550837fe5972e6bc47efee6d3101eaf40220fca388e32d2b40d30965c983b395eeb26608442604051610a369291906126a4565b60405180910390a250505050565b610a4c6118a8565b5f60035f8481526020019081526020015f206002015403610aa2576040517f08c379a0000000000000000000000000000000000000000000000000000000008152600401610a999061273b565b60405180910390fd5b60035f8381526020019081526020015f206040518060c00160405290815f82018054610acd9061233c565b80601f0160208091040260200160405190810160405280929190818152602001828054610af99061233c565b8015610b445780601f10610b1b57610100808354040283529160200191610b44565b820191905f5260205f20905b815481529060010190602001808311610b2757829003601f168201915b50505050508152602001600182015f9054906101000a900460ff1660ff1660ff16815260200160028201548152602001600382015f9054906101000a900461ffff1661ffff1661ffff1681526020016003820160029054906101000a900473ffffffffffffffffffffffffffffffffffffffff1673ffffffffffffffffffffffffffffffffffffffff1673ffffffffffffffffffffffffffffffffffffffff168152602001600482016040518060800160405290815f82015f9054906101000a900460ff166001811115610c1b57610c1a611aef565b5b6001811115610c2d57610c2c611aef565b5b81526020016001820154815260200160028201548152602001600382015f9054906101000a900461ffff1661ffff1661ffff1681525050815250509050919050565b600a8360ff161015610cb6576040517f08c379a0000000000000000000000000000000000000000000000000000000008152600401610cad906127c9565b60405180910390fd5b610cbf82611869565b610cfe576040517f08c379a0000000000000000000000000000000000000000000000000000000008152600401610cf590612857565b60405180910390fd5b5f60035f8381526020019081526020015f206002015414610d54576040517f08c379a0000000000000000000000000000000000000000000000000000000008152600401610d4b906128e5565b60405180910390fd5b5f60055f3373ffffffffffffffffffffffffffffffffffffffff1673ffffffffffffffffffffffffffffffffffffffff1681526020019081526020015f205414610dd3576040517f08c379a0000000000000000000000000000000000000000000000000000000008152600401610dca90612973565b60405180910390fd5b5f60025f8461ffff1661ffff1681526020019081526020015f205490505f8111610e32576040517f08c379a0000000000000000000000000000000000000000000000000000000008152600401610e2990612a01565b60405180910390fd5b5f60015f9054906101000a900473ffffffffffffffffffffffffffffffffffffffff1673ffffffffffffffffffffffffffffffffffffffff166323b872dd3330856040518463ffffffff1660e01b8152600401610e9193929190612a1f565b6020604051808303815f875af1158015610ead573d5f5f3e3d5ffd5b505050506040513d601f19601f82011682018060405250810190610ed1919061258b565b905080610f13576040517f08c379a0000000000000000000000000000000000000000000000000000000008152600401610f0a90612626565b60405180910390fd5b5f6040518060800160405280600180811115610f3257610f31611aef565b5b81526020014281526020018481526020018661ffff1681525090506040518060c001604052808881526020018760ff1681526020018581526020018661ffff1681526020013373ffffffffffffffffffffffffffffffffffffffff1681526020018281525060035f8681526020019081526020015f205f820151815f019081610fbb9190612bfc565b506020820151816001015f6101000a81548160ff021916908360ff160217905550604082015181600201556060820151816003015f6101000a81548161ffff021916908361ffff16021790555060808201518160030160026101000a81548173ffffffffffffffffffffffffffffffffffffffff021916908373ffffffffffffffffffffffffffffffffffffffff16021790555060a0820151816004015f820151815f015f6101000a81548160ff021916908360018111156110805761107f611aef565b5b021790555060208201518160010155604082015181600201556060820151816003015f6101000a81548161ffff021916908361ffff16021790555050509050508360055f3373ffffffffffffffffffffffffffffffffffffffff1673ffffffffffffffffffffffffffffffffffffffff1681526020019081526020015f2081905550600784908060018154018082558091505060019003905f5260205f20015f9091909190915055837f6ae48f86e3d1b73d201fed018c1b2630b92cc24226db02cd7f761613e67eeee2888760405161115a929190612ccb565b60405180910390a2837f1d5fc5e949cdf216610ea1f90f66f256bba052298deac5e9a48ab0a9ecc873ef84426040516111949291906126a4565b60405180910390a250505050505050565b606060088054806020026020016040519081016040528092919081815260200182805480156111f157602002820191905f5260205f20905b8154815260200190600101908083116111dd575b5050505050905090565b6002602052805f5260405f205f915090505481565b5f5f9054906101000a900473ffffffffffffffffffffffffffffffffffffffff1673ffffffffffffffffffffffffffffffffffffffff163373ffffffffffffffffffffffffffffffffffffffff161461129e576040517f08c379a0000000000000000000000000000000000000000000000000000000008152600401611295906123f5565b60405180910390fd5b5f60045f8381526020019081526020015f2060010154146112f4576040517f08c379a00000000000000000000000000000000000000000000000000000000081526004016112eb90612d69565b60405180910390fd5b5f60065f3373ffffffffffffffffffffffffffffffffffffffff1673ffffffffffffffffffffffffffffffffffffffff1681526020019081526020015f205414611373576040517f08c379a000000000000000000000000000000000000000000000000000000000815260040161136a90612973565b60405180910390fd5b5f8251116113b6576040517f08c379a00000000000000000000000000000000000000000000000000000000081526004016113ad90612df7565b60405180910390fd5b60405180608001604052808381526020018281526020013373ffffffffffffffffffffffffffffffffffffffff1681526020015f81525060045f8381526020019081526020015f205f820151815f0190816114119190612bfc565b50602082015181600101556040820151816002015f6101000a81548173ffffffffffffffffffffffffffffffffffffffff021916908373ffffffffffffffffffffffffffffffffffffffff160217905550606082015181600301559050508060065f3373ffffffffffffffffffffffffffffffffffffffff1673ffffffffffffffffffffffffffffffffffffffff1681526020019081526020015f2081905550600881908060018154018082558091505060019003905f5260205f20015f9091909190915055807f2a5ddf9c74c207e537139dbe1b9b6958dcf8eea16ee763959ed8d92bbd2073fd836040516115079190612e15565b60405180910390a25050565b5f61151d82611869565b61155c576040517f08c379a000000000000000000000000000000000000000000000000000000000815260040161155390612e7f565b60405180910390fd5b60025f8361ffff1661ffff1681526020019081526020015f20549050919050565b5f5f9054906101000a900473ffffffffffffffffffffffffffffffffffffffff1673ffffffffffffffffffffffffffffffffffffffff163373ffffffffffffffffffffffffffffffffffffffff161461160b576040517f08c379a0000000000000000000000000000000000000000000000000000000008152600401611602906123f5565b60405180910390fd5b61161482611869565b611653576040517f08c379a000000000000000000000000000000000000000000000000000000000815260040161164a90612e7f565b60405180910390fd5b5f8111611695576040517f08c379a000000000000000000000000000000000000000000000000000000000815260040161168c90612f0d565b60405180910390fd5b8060025f8461ffff1661ffff1681526020019081526020015f20819055505050565b6116bf6118fd565b5f60045f8481526020019081526020015f206001015403611715576040517f08c379a000000000000000000000000000000000000000000000000000000000815260040161170c90612483565b60405180910390fd5b60045f8381526020019081526020015f206040518060800160405290815f820180546117409061233c565b80601f016020809104026020016040519081016040528092919081815260200182805461176c9061233c565b80156117b75780601f1061178e576101008083540402835291602001916117b7565b820191905f5260205f20905b81548152906001019060200180831161179a57829003601f168201915b5050505050815260200160018201548152602001600282015f9054906101000a900473ffffffffffffffffffffffffffffffffffffffff1673ffffffffffffffffffffffffffffffffffffffff1673ffffffffffffffffffffffffffffffffffffffff1681526020016003820154815250509050919050565b5f5f9054906101000a900473ffffffffffffffffffffffffffffffffffffffff1681565b6005602052805f5260405f205f915090505481565b5f60648261ffff161480611881575060c88261ffff16145b80611891575061012c8261ffff16145b806118a157506101908261ffff16145b9050919050565b6040518060c00160405280606081526020015f60ff1681526020015f81526020015f61ffff1681526020015f73ffffffffffffffffffffffffffffffffffffffff1681526020016118f7611938565b81525090565b6040518060800160405280606081526020015f81526020015f73ffffffffffffffffffffffffffffffffffffffff1681526020015f81525090565b60405180608001604052805f600181111561195657611955611aef565b5b81526020015f81526020015f81526020015f61ffff1681525090565b5f604051905090565b5f5ffd5b5f5ffd5b5f819050919050565b61199581611983565b811461199f575f5ffd5b50565b5f813590506119b08161198c565b92915050565b5f602082840312156119cb576119ca61197b565b5b5f6119d8848285016119a2565b91505092915050565b6119ea81611983565b82525050565b5f602082019050611a035f8301846119e1565b92915050565b5f81519050919050565b5f82825260208201905092915050565b8281835e5f83830152505050565b5f601f19601f8301169050919050565b5f611a4b82611a09565b611a558185611a13565b9350611a65818560208601611a23565b611a6e81611a31565b840191505092915050565b5f60ff82169050919050565b611a8e81611a79565b82525050565b5f61ffff82169050919050565b611aaa81611a94565b82525050565b5f73ffffffffffffffffffffffffffffffffffffffff82169050919050565b5f611ad982611ab0565b9050919050565b611ae981611acf565b82525050565b7f4e487b71000000000000000000000000000000000000000000000000000000005f52602160045260245ffd5b60028110611b2d57611b2c611aef565b5b50565b5f819050611b3d82611b1c565b919050565b5f611b4c82611b30565b9050919050565b611b5c81611b42565b82525050565b611b6b81611983565b82525050565b611b7a81611a94565b82525050565b608082015f820151611b945f850182611b53565b506020820151611ba76020850182611b62565b506040820151611bba6040850182611b62565b506060820151611bcd6060850182611b71565b50505050565b5f610120820190508181035f830152611bec8189611a41565b9050611bfb6020830188611a85565b611c0860408301876119e1565b611c156060830186611aa1565b611c226080830185611ae0565b611c2f60a0830184611b80565b979650505050505050565b5f819050919050565b5f611c5d611c58611c5384611ab0565b611c3a565b611ab0565b9050919050565b5f611c6e82611c43565b9050919050565b5f611c7f82611c64565b9050919050565b611c8f81611c75565b82525050565b5f602082019050611ca85f830184611c86565b92915050565b611cb781611acf565b8114611cc1575f5ffd5b50565b5f81359050611cd281611cae565b92915050565b5f60208284031215611ced57611cec61197b565b5b5f611cfa84828501611cc4565b91505092915050565b5f6080820190508181035f830152611d1b8187611a41565b9050611d2a60208301866119e1565b611d376040830185611ae0565b611d4460608301846119e1565b95945050505050565b5f81519050919050565b5f82825260208201905092915050565b5f819050602082019050919050565b5f611d818383611b62565b60208301905092915050565b5f602082019050919050565b5f611da382611d4d565b611dad8185611d57565b9350611db883611d67565b805f5b83811015611de8578151611dcf8882611d76565b9750611dda83611d8d565b925050600181019050611dbb565b5085935050505092915050565b5f6020820190508181035f830152611e0d8184611d99565b905092915050565b5f5f60408385031215611e2b57611e2a61197b565b5b5f611e38858286016119a2565b9250506020611e49858286016119a2565b9150509250929050565b5f82825260208201905092915050565b5f611e6d82611a09565b611e778185611e53565b9350611e87818560208601611a23565b611e9081611a31565b840191505092915050565b611ea481611a79565b82525050565b611eb381611acf565b82525050565b608082015f820151611ecd5f850182611b53565b506020820151611ee06020850182611b62565b506040820151611ef36040850182611b62565b506060820151611f066060850182611b71565b50505050565b5f61012083015f8301518482035f860152611f278282611e63565b9150506020830151611f3c6020860182611e9b565b506040830151611f4f6040860182611b62565b506060830151611f626060860182611b71565b506080830151611f756080860182611eaa565b5060a0830151611f8860a0860182611eb9565b508091505092915050565b5f6020820190508181035f830152611fab8184611f0c565b905092915050565b5f5ffd5b5f5ffd5b7f4e487b71000000000000000000000000000000000000000000000000000000005f52604160045260245ffd5b611ff182611a31565b810181811067ffffffffffffffff821117156120105761200f611fbb565b5b80604052505050565b5f612022611972565b905061202e8282611fe8565b919050565b5f67ffffffffffffffff82111561204d5761204c611fbb565b5b61205682611a31565b9050602081019050919050565b828183375f83830152505050565b5f61208361207e84612033565b612019565b90508281526020810184848401111561209f5761209e611fb7565b5b6120aa848285612063565b509392505050565b5f82601f8301126120c6576120c5611fb3565b5b81356120d6848260208601612071565b91505092915050565b6120e881611a79565b81146120f2575f5ffd5b50565b5f81359050612103816120df565b92915050565b61211281611a94565b811461211c575f5ffd5b50565b5f8135905061212d81612109565b92915050565b5f5f5f5f6080858703121561214b5761214a61197b565b5b5f85013567ffffffffffffffff8111156121685761216761197f565b5b612174878288016120b2565b9450506020612185878288016120f5565b93505060406121968782880161211f565b92505060606121a7878288016119a2565b91505092959194509250565b5f602082840312156121c8576121c761197b565b5b5f6121d58482850161211f565b91505092915050565b5f5f604083850312156121f4576121f361197b565b5b5f83013567ffffffffffffffff8111156122115761221061197f565b5b61221d858286016120b2565b925050602061222e858286016119a2565b9150509250929050565b5f5f6040838503121561224e5761224d61197b565b5b5f61225b8582860161211f565b925050602061226c858286016119a2565b9150509250929050565b5f608083015f8301518482035f8601526122908282611e63565b91505060208301516122a56020860182611b62565b5060408301516122b86040860182611eaa565b5060608301516122cb6060860182611b62565b508091505092915050565b5f6020820190508181035f8301526122ee8184612276565b905092915050565b5f6020820190506123095f830184611ae0565b92915050565b7f4e487b71000000000000000000000000000000000000000000000000000000005f52602260045260245ffd5b5f600282049050600182168061235357607f821691505b6020821081036123665761236561230f565b5b50919050565b5f8151905061237a8161198c565b92915050565b5f602082840312156123955761239461197b565b5b5f6123a28482850161236c565b91505092915050565b7f5363686f6f6c4d616e6167656d656e743a204e6f742061646d696e00000000005f82015250565b5f6123df601b83611a13565b91506123ea826123ab565b602082019050919050565b5f6020820190508181035f83015261240c816123d3565b9050919050565b7f5363686f6f6c4d616e6167656d656e743a205374616666206e6f7420666f756e5f8201527f6400000000000000000000000000000000000000000000000000000000000000602082015250565b5f61246d602183611a13565b915061247882612413565b604082019050919050565b5f6020820190508181035f83015261249a81612461565b9050919050565b7f5363686f6f6c4d616e6167656d656e743a20416d6f756e74206d7573742062655f8201527f2067726561746572207468616e207a65726f0000000000000000000000000000602082015250565b5f6124fb603283611a13565b9150612506826124a1565b604082019050919050565b5f6020820190508181035f830152612528816124ef565b9050919050565b5f6040820190506125425f830185611ae0565b61254f60208301846119e1565b9392505050565b5f8115159050919050565b61256a81612556565b8114612574575f5ffd5b50565b5f8151905061258581612561565b92915050565b5f602082840312156125a05761259f61197b565b5b5f6125ad84828501612577565b91505092915050565b7f5363686f6f6c4d616e6167656d656e743a20546f6b656e207472616e736665725f8201527f206661696c656400000000000000000000000000000000000000000000000000602082015250565b5f612610602783611a13565b915061261b826125b6565b604082019050919050565b5f6020820190508181035f83015261263d81612604565b9050919050565b7f4e487b71000000000000000000000000000000000000000000000000000000005f52601160045260245ffd5b5f61267b82611983565b915061268683611983565b925082820190508082111561269e5761269d612644565b5b92915050565b5f6040820190506126b75f8301856119e1565b6126c460208301846119e1565b9392505050565b7f5363686f6f6c4d616e6167656d656e743a2053747564656e74206e6f7420666f5f8201527f756e640000000000000000000000000000000000000000000000000000000000602082015250565b5f612725602383611a13565b9150612730826126cb565b604082019050919050565b5f6020820190508181035f83015261275281612719565b9050919050565b7f5363686f6f6c4d616e6167656d656e743a20416765206d7573742062652061745f8201527f206c656173742031300000000000000000000000000000000000000000000000602082015250565b5f6127b3602983611a13565b91506127be82612759565b604082019050919050565b5f6020820190508181035f8301526127e0816127a7565b9050919050565b7f5363686f6f6c4d616e6167656d656e743a204c6576656c206d757374206265205f8201527f3130302c203230302c203330302c206f72203430300000000000000000000000602082015250565b5f612841603583611a13565b915061284c826127e7565b604082019050919050565b5f6020820190508181035f83015261286e81612835565b9050919050565b7f5363686f6f6c4d616e6167656d656e743a2053747564656e7420494420616c725f8201527f6561647920657869737473000000000000000000000000000000000000000000602082015250565b5f6128cf602b83611a13565b91506128da82612875565b604082019050919050565b5f6020820190508181035f8301526128fc816128c3565b9050919050565b7f5363686f6f6c4d616e6167656d656e743a204164647265737320616c726561645f8201527f7920726567697374657265640000000000000000000000000000000000000000602082015250565b5f61295d602c83611a13565b915061296882612903565b604082019050919050565b5f6020820190508181035f83015261298a81612951565b9050919050565b7f5363686f6f6c4d616e6167656d656e743a204e6f206665652073657420666f725f8201527f2074686973206c6576656c000000000000000000000000000000000000000000602082015250565b5f6129eb602b83611a13565b91506129f682612991565b604082019050919050565b5f6020820190508181035f830152612a18816129df565b9050919050565b5f606082019050612a325f830186611ae0565b612a3f6020830185611ae0565b612a4c60408301846119e1565b949350505050565b5f819050815f5260205f209050919050565b5f6020601f8301049050919050565b5f82821b905092915050565b5f60088302612ab07fffffffffffffffffffffffffffffffffffffffffffffffffffffffffffffffff82612a75565b612aba8683612a75565b95508019841693508086168417925050509392505050565b5f612aec612ae7612ae284611983565b611c3a565b611983565b9050919050565b5f819050919050565b612b0583612ad2565b612b19612b1182612af3565b848454612a81565b825550505050565b5f5f905090565b612b30612b21565b612b3b818484612afc565b505050565b5f5b82811015612b6157612b565f828401612b28565b600181019050612b42565b505050565b601f821115612bb45782821115612bb357612b8081612a54565b612b8983612a66565b612b9285612a66565b6020861015612b9f575f90505b808301612bae82840382612b40565b505050505b5b505050565b5f82821c905092915050565b5f612bd45f1984600802612bb9565b1980831691505092915050565b5f612bec8383612bc5565b9150826002028217905092915050565b612c0582611a09565b67ffffffffffffffff811115612c1e57612c1d611fbb565b5b612c28825461233c565b612c33828285612b66565b5f60209050601f831160018114612c64575f8415612c52578287015190505b612c5c8582612be1565b865550612cc3565b601f198416612c7286612a54565b5f5b82811015612c9957848901518255600182019150602085019450602081019050612c74565b86831015612cb65784890151612cb2601f891682612bc5565b8355505b6001600288020188555050505b505050505050565b5f6040820190508181035f830152612ce38185611a41565b9050612cf26020830184611aa1565b9392505050565b7f5363686f6f6c4d616e6167656d656e743a20537461666620494420616c7265615f8201527f6479206578697374730000000000000000000000000000000000000000000000602082015250565b5f612d53602983611a13565b9150612d5e82612cf9565b604082019050919050565b5f6020820190508181035f830152612d8081612d47565b9050919050565b7f5363686f6f6c4d616e6167656d656e743a204e616d652063616e6e6f742062655f8201527f20656d7074790000000000000000000000000000000000000000000000000000602082015250565b5f612de1602683611a13565b9150612dec82612d87565b604082019050919050565b5f6020820190508181035f830152612e0e81612dd5565b9050919050565b5f6020820190508181035f830152612e2d8184611a41565b905092915050565b7f5363686f6f6c4d616e6167656d656e743a20496e76616c6964206c6576656c005f82015250565b5f612e69601f83611a13565b9150612e7482612e35565b602082019050919050565b5f6020820190508181035f830152612e9681612e5d565b9050919050565b7f5363686f6f6c4d616e6167656d656e743a20466565206d7573742062652067725f8201527f6561746572207468616e207a65726f0000000000000000000000000000000000602082015250565b5f612ef7602f83611a13565b9150612f0282612e9d565b604082019050919050565b5f6020820190508181035f830152612f2481612eeb565b905091905056fea264697066735822122037c30a1d56d222051c63d55bffc8c537227dababa65113ed75b57f1290838b3864736f6c63430008210033","linkReferences":{}},"methodIdentifiers":{"admin()":"f851a440","getAllStaffIds()":"c8cdf074","getAllStudentIds()":"834d336c","getContractTokenBalance()":"317d9453","getLevelFee(uint16)":"de1b6796","getStaffDetails(uint256)":"e4a8cf39","getStudentDetails(uint256)":"86a9b364","levelFees(uint16)":"d596f063","payStaff(uint256,uint256)":"8580df9f","registerStaff(string,uint256)":"d6f702d5","registerStudent(string,uint8,uint16,uint256)":"c3acea74","schoolToken()":"2fa092ad","setLevelFee(uint16,uint256)":"e1dddec9","staffIdByAddress(address)":"32b245a0","staffIds(uint256)":"04153bfa","staffs(uint256)":"498d4707","studentIdByAddress(address)":"fab32f27","studentIds(uint256)":"6f28c355","students(uint256)":"06ead22e"},"id":20}